:020000040800F2
:1000000000000220F1080008B1070008B30700084B
:10001000B5070008B7070008B9070008000000008E
:10002000000000000000000000000000BB07000806
:10003000BD07000800000000BF070008C107000856
:100040004109000841090008410900084109000868
:100050004109000841090008410900084109000858
:100060004109000841090008410900084109000848
:100070004109000841090008410900084109000838
:100080004109000841090008410900084109000828
:10009000C907000841090008410900084109000892
:1000A0004109000841090008410900084109000808
:1000B00041090008410900084109000841090008F8
:1000C00041090008410900084109000841090008E8
:1000D00041090008D9070008410900084109000842
:1000E00041090008410900084109000841090008C8
:1000F00041090008410900084109000841090008B8
:1001000041090008410900084109000841090008A7
:100110004109000841090008410900084109000897
:100120004109000841090008410900084109000887
:100130004109000841090008410900084109000877
:10014000E9070008410900084109000841090008C1
:100150004109000841090008410900084109000857
:100160004109000841090008410900084109000847
:100170004109000841090008410900080000000089
:080180004109000841090008D3
:1001880010B5054C237833B9044B13B10448AFF3C9
:1001980000800123237010BD3C04002000000000F3
:1001A800D41E000808B5034B1BB103490348AFF33D
:1001B800008008BD0000000040040020D41E000894
:1001C80053B94AB9002908BF00281CBF4FF0FF31B6
:1001D8004FF0FF3000F06EB9ADF1080C6DE904CEB8
:1001E80000F006F8DDF804E0DDE9022304B070470A
:1001F8002DE9F047089D04468C46002B40F083808B
:100208008A42174647D9B2FA82F242B1C2F12000B7
:1002180024FA00F09140974040EA010C94404FEADC
:100228001748230CBCFBF8F61FFA87FE08FB16C11B
:1002380043EA014306FB0EF1994209D9FB1806F17E
:10024800FF3080F01981994240F21681023E3B440A
:100258005B1AA4B2B3FBF8F008FB103344EA03447A
:1002680000FB0EFEA64509D93C1900F1FF3380F0CA
:100278000581A64540F2028102383C4440EA064026
:10028800A4EB0E0400261DB1D4400023C5E90043A9
:100298003146BDE8F08702B9FFDEB2FA82F2002AE1
:1002A80050D1CB1B4FEA174E1FFA87F80126B3FB34
:1002B800FEFC210C0EFB1C3341EA034108FB0CF346
:1002C8008B4207D979180CF1FF3002D28B4200F229
:1002D800E9808446C91AA3B2B1FBFEF00EFB1011E7
:1002E80043EA014408FB00F8A04507D93C1900F18E
:1002F800FF3302D2A04500F2D9801846A4EB0804C7
:1003080040EA0C40BFE78B4209D9002D00F0B180CC
:100318000026C5E9000130463146BDE8F087B3FA4A
:1003280083F6002E4AD18B4202D3824200F2B88073
:10033800841A61EB030101208C46002DA8D0C5E981
:10034800004CA5E7C2F1200320FA03F6974001FA12
:1003580002F04FEA174ED9403043030CB1FBFEF6CA
:100368001FFA87F80EFB161143EA014306FB08F152
:10037800994204FA02F409D9FB1806F1FF3C80F00F
:100388008D80994240F28A80023E3B445B1A81B2DA
:10039800B3FBFEF00EFB103341EA034100FB08F308
:1003A8008B4207D9791800F1FF3C73D28B4271D97F
:1003B80002383944CB1A40EA064678E7C6F1200CE1
:1003C80003FA06F422FA0CF31C4320FA0CF701FA9C
:1003D80006F34FEA144E21FA0CF11F433B0CB1FB14
:1003E800FEF91FFA84F80EFB191143EA014109FBD3
:1003F80008FA8A4502FA06F200FA06F308D96118E3
:1004080009F1FF3048D28A4546D9A9F102092144A9
:10041800A1EB0A01BFB2B1FBFEF00EFB101147EAD7
:10042800014700FB08F8B84507D9E71900F1FF3183
:100438002ED2B8452CD90238274440EA0940A7EB08
:100448000807A0FB02894F45C64649461AD317D06C
:100458005DB1B3EB0E0267EB010707FA0CFCF24043
:100468004CEA0202F740C5E9002700263146BDE8FC
:10047800F0872E4628460BE70646E9E61846FDE6CD
:100488004345E5D2B8EB020E69EB04010138DFE71A
:100498000846D2E760468DE78146B9E7664675E7C4
:1004A80030464AE7ACF1020C394413E702383C44C1
:1004B80024E700BF704700BF08B50D480D4B036027
:1004C8000323436000238360C3604FF4102202615A
:1004D8004FF400124261037643768376C37603773E
:1004E800437700F07DFA00B908BD00F0DDF8FBE7BE
:1004F8005C0400200064004008B50D480D4B036003
:100508000323436000238360C3604FF41022026119
:100518004FF400124261037643768376C3760377FD
:10052800437700F05DFA00B908BD00F0BDF8FBE7BD
:10053800840400200068004010B58AB000230593A9
:10054800069307930893099303683F4A934204D09C
:100558003E4A934237D00AB010BD3D4A1368013372
:100568001360012B22D0002401943A4B1A6B42F0FD
:1005780002021A631B6B03F002030193019B4FF401
:1005880040730593022306930794032308930923D2
:10059800099305A9304800F0C3FC224621461420DF
:1005A80000F008FC142000F039FCD4E70023009385
:1005B800284B1A6C42F000721A641B6C03F000732B
:1005C8000093009BCFE700230293224B1A6C42F062
:1005D80080621A641B6C03F080630293029B1C4ABE
:1005E800136801331360012B21D000240494194BA4
:1005F8001A6B42F002021A631B6B03F002030493A6
:10060800049B60230593022306930794032308930E
:100618000923099305A9104800F082FC22462146C7
:10062800402000F0C7FB402000F0F8FB93E70023D0
:100638000393084B1A6C42F000721A641B6C03F0A7
:1006480000730393039BD0E70064004000680040F8
:1006580058040020003802400004024084B0002200
:100668000192104B196B41F002011963196B01F0EB
:100678000201019101990292196B41F0010119637C
:10068800196B01F001010291029903921A6B42F071
:1006980080021A631B6B03F080030393039B04B06F
:1006A800704700BF0038024072B6FEE700B595B04B
:1006B8003022002108A801F049FB0023039304938A
:1006C8000593069307930193204A116C41F08051DA
:1006D8001164126C02F080520192019A02931C4B31
:1006E8001A6842F480421A601B6803F4804302933C
:1006F800029B012308934FF48033099302230E933E
:100708004FF480020F9206221092A822119212939F
:100718000423139308A800F0EDFC98B90F23039362
:1007280002230493002305934FF4A05306934FF438
:1007380080530793052103A800F028FF20B915B0BE
:100748005DF804FBFFF7B0FFFFF7AEFF003802408B
:100758000070004008B500F017F9FFF7A7FFFFF792
:100768007DFFFFF7A9FEFFF7C7FE00F04BF8FEE795
:1007780082B0002100910B4B5A6C42F480425A64BB
:100788005A6C02F480420092009A01911A6C42F06D
:1007980080521A641B6C03F080530193019B02B0D2
:1007A800704700BF00380240FEE7FEE7FEE7FEE7BD
:1007B800FEE770477047704708B500F0FFF808BDBE
:1007C80008B5024800F0BFF908BD00BF5C0400206E
:1007D80008B5024801F056F908BD00BFAC04002076
:1007E80008B5024800F0AFF908BD00BF8404002036
:1007F800034AD2F8883043F47003C2F8883070474F
:1008080000ED00E008B50A480A4B03604FF4E133F5
:10081800436000238360C36003610C2242618361EB
:10082800C36101F075F800B908BDFFF73DFFFBE7AC
:10083800AC04002000100140F0B589B000230393F8
:100848000493059306930793026803F1804303F525
:1008580088339A4201D009B0F0BD0024009403F512
:1008680094335A6C42F010025A645A6C02F0100227
:100878000092009A01941A6B42F002021A631A6BF2
:1008880002F002020192019A02941A6B42F00102EC
:100898001A631B6B03F001030293029B80230393EB
:1008A800022704970594032606960725079503A9AA
:1008B8000B4800F035FB4FF400730393049705943D
:1008C8000696079503A9074800F02AFB2246214609
:1008D800252000F06FFA252000F0A0FABBE700BF42
:1008E8000004024000000240DFF834D00D480E49F1
:1008F8000E4A002302E0D458C4500433C4188C4272
:10090800F9D30B4A0B4C002301E013600432A242D6
:10091800FBD3FFF76DFF01F0F5F9FFF71BFF7047F9
:1009280000000220000000203C0400201C1F0008DA
:100938003C04002018050020FEE7000010B504461E
:100948000E4B18784FF47A73B3FBF0F30C4A106827
:10095800B0FBF3F000F070FA68B90F2C01D9012050
:100968000AE0002221464FF0FF3000F023FA054B41
:100978001C60002000E0012010BD00BF0400002022
:10098800000000200800002008B50B4B1A6842F44C
:1009980000721A601A6842F480621A601A6842F497
:1009A80080721A60032000F0F3F90F20FFF7C6FFEA
:1009B800FFF7DEFE002008BD003C0240034A116834
:1009C800034B1B780B441360704700BFF0040020F2
:1009D80004000020014B1868704700BFF004002095
:1009E800002800F0A18038B5044690F82030D3B133
:1009F8002268136843F001031360FFF7EBFF054615
:100A080023685A6812F0010F10D1FFF7E3FF401B6B
:100A18000A28F5D9636A43F400336362052384F82E
:100A28002030012038BDFFF787FDE1E71A6822F082
:100A380002021A60FFF7CEFF054623685A6812F0D3
:100A4800020F0DD0FFF7C6FF401B0A28F5D9636ACD
:100A580043F400336362052384F820300120E1E782
:100A6800227E012A3DD01A6822F080021A60637E35
:100A7800012B3BD02268136823F040031360A37E48
:100A8800012B39D02268136823F020031360E37E1A
:100A9800012B37D02268136843F010031360237FBB
:100AA800012B35D02268136823F008031360637F95
:100AB800012B33D02268136823F004031360A36862
:100AC800E268134322691343626913436268013A77
:100AD80021681343CB6100206062012384F8203031
:100AE800A0E71A6842F080021A60C0E7226813681B
:100AF80043F040031360C2E72268136843F0200301
:100B08001360C4E72268136823F010031360C6E774
:100B18002268136843F008031360C8E72268136863
:100B280043F004031360CAE7012070477047704719
:100B380070477047704770477047704770477047F5
:100B48007047704770472DE9F84F054603685C69A0
:100B5800D3F804809F68D3F80CB0D3F810A0D3F86A
:100B6800189014F001063BD017F0010616D00122A8
:100B78009A6017F0020F08D117F0040F0CD117F084
:100B8800080606D04FF4805608E0FFF7CFFF00268E
:100B980004E0FFF7CEFF01E04FF4006617F4807F12
:100BA8000DD02B684FF480729A6017F4007F40F0E4
:100BB800868017F4806F00F0868046F4005617F49C
:100BC800803F0DD02B684FF480329A6017F4003FB5
:100BD80040F0838017F4802F00F0838046F40046AD
:100BE80014F0080F07D01BF0100F04D046F400765D
:100BF8002B681022DA6014F0040F02D01BF0080FE3
:100C080079D114F0020F04D02B68DB6813F0030FBE
:100C180078D114F0400F07D01AF0100F04D046F422
:100C280080662B6810221A6114F0200F02D01AF087
:100C3800080F6BD114F0100F04D02B681B6913F048
:100C4800030F6AD114F4003F02D018F0100F68D1D6
:100C580014F4803F02D018F0080F69D114F4004F43
:100C68007AD018F0040F74D014F4807F04D019F0EF
:100C7800010F01D046F0010614F4007F04D019F0EA
:100C8800020F01D046F0020614F4806F04D019F068
:100C9800040F01D046F0040614F4006F59D019F07F
:100CA800700956D0B9F1400F65D058D8B9F1200F66
:100CB8005ED0B9F1300F42D146F0200644E0284614
:100CC800FFF735FF7BE717F4006F02D046F4804644
:100CD80075E72846FFF72EFF71E72846FFF728FF3C
:100CE8007EE717F4002F02D046F4803678E72846CE
:100CF800FFF721FF74E72B680822DA602846FFF720
:100D08001CFF7EE72846FFF717FF82E72B680822BB
:100D18001A612846FFF713FF8CE72846FFF70EFFF6
:100D280090E72B6810225A602846FFF709FF8FE7E3
:100D38002B6808225A602846FFF703FF8EE7B9F1AF
:100D4800100F01D146F008062A68936923F0700352
:100D580093612B6804225A609EB9BDE8F88FB9F1F7
:100D6800500F0BD0B9F1600FEED146F48076EBE767
:100D780046F01006E8E746F04006E5E746F080064C
:100D8800E2E76B6A1E436E622846FFF7DBFEE4E784
:100D9800074AD36823F4E0631B041B0C000200F429
:100DA800E060034343F0BF6343F40033D36070470C
:100DB80000ED00E030B4174BDB68C3F30223C3F146
:100DC8000704042C28BF04241D1D062D18D9033B35
:100DD8004FF0FF3505FA04F421EA0401994005FAB9
:100DE80003F322EA0303194300280BDB0901C9B204
:100DF80000F1604000F5614080F8001330BC704796
:100E08000023E5E700F00F000901C9B2024B1954AD
:100E1800F4E700BF00ED00E014ED00E0002807DB78
:100E280000F01F02400901239340024A42F8203093
:100E3800704700BF00E100E00138B0F1807F0AD2BE
:100E4800064B5860064AF02182F82310002098606B
:100E580007221A6070470120704700BF10E000E0C9
:100E680000ED00E070B50446866DFFF7B3FD94F819
:100E78003530DBB2022B06D080236365002384F86B
:100E88003430012070BD05462268136823F016032C
:100E980013602268536923F080035361236CE3B124
:100EA8002268136823F0080313602268136823F08C
:100EB8000103136023681B6813F0010F11D0FFF7BB
:100EC80089FD431B052BF5D920236365032084F88E
:100ED8003500002384F83430D4E7A36C002BDFD12D
:100EE800E3E7E26D3F239340B360012384F8353094
:100EF800002084F83400C5E790F83530DBB2022BC7
:100F080003D08023436501207047052380F83530DE
:100F18000268136823F00103136000207047000083
:100F280000230F2B00F2DD80F0B482B05DE086680C
:100F38005F000324BC4026EA0406CC68BC40344366
:100F48008460466826EA02064C68C4F300129A4098
:100F58003243426057E0DC08083450F8247003F04C
:100F6800070296000F22B24027EA02070A69B24038
:100F78003A4340F824205AE0072200E00022B24019
:100F88003A430234574E46F82420574A9468EA43B5
:100F980024EA05064F6817F4801F01D045EA0406C5
:100FA800514CA660E46802EA04064F6817F4001F73
:100FB80001D045EA04064C4CE660646802EA04067F
:100FC8004F6817F4003F01D045EA0406464C6660B6
:100FD800246822404E6816F4803F01D045EA040296
:100FE800414C226001330F2B78D801229A400C68BB
:100FF80004EA020532EA0404F4D14C6804F003045C
:10100800013C012C93D94A6802F00302032A09D053
:10101800C4685E000322B24024EA02048A68B2402F
:101028002243C2604A6802F00302022A93D004688D
:101038005E000322B24024EA02044A6802F0030276
:10104800B240224302604A6812F4403FCAD00022EC
:101058000192264A546C44F480445464526C02F45D
:1010680080420192019A9C08A61C1E4A52F82670DA
:1010780003F0030296000F22B24027EA02071C4A37
:1010880090423FF47BAF02F5806290421AD002F59D
:101098008062904218D002F58062904216D002F524
:1010A8008062904214D002F58062904212D002F51C
:1010B8008062904210D002F5806290423FF45CAFAB
:1010C80008225CE701225AE7022258E7032256E782
:1010D800042254E7052252E7062250E702B0F0BC8A
:1010E8007047704700380140003C0140003802401A
:1010F80000000240002800F0DF8170B582B004468D
:10110800036813F0010F3BD0A64B9B6803F00C0358
:10111800042B2CD0A34B9B6803F00C03082B21D085
:101128006368B3F5803F4FD0B3F5A02F52D09D4BE5
:101138001A6822F480321A601A6822F480221A602F
:101148006368002B50D0FFF745FC0546954B1B689C
:1011580013F4003F14D1FFF73DFC401B6428F5D978
:101168000320B0E18F4B5B6813F4800FD8D08D4B10
:101178001B6813F4003F03D06368002B00F09E81C6
:10118800236813F0020F54D0864B9B6813F00C0FA2
:101198003ED0844B9B6803F00C03082B33D0E368E4
:1011A800002B67D0804B01221A60FFF713FC05461D
:1011B8007C4B1B6813F0020F53D1FFF70BFC401B4D
:1011C8000228F5D903207EE1764A136843F4803378
:1011D8001360B5E7734B1A6842F480221A601A68E4
:1011E80042F480321A60ABE7FFF7F4FB05466D4B1B
:1011F8001B6813F4003FC3D0FFF7ECFB401B6428C7
:10120800F5D903205FE1674B5B6813F4800FC6D103
:10121800644B1B6813F0020F03D0E368012B40F006
:101228004F81604A136823F0F803216943EAC10338
:101238001360236813F0080F40D0636963B35B4BF6
:1012480001221A60FFF7C6FB0546564B5B6F13F089
:10125800020F33D1FFF7BEFB401B0228F5D903204C
:1012680031E1504A136823F0F803216943EAC103C6
:101278001360DEE74C4B00221A60FFF7ABFB054614
:10128800484B1B6813F0020FD3D0FFF7A3FB401B9A
:101298000228F5D9032016E1444B00221A60FFF713
:1012A80099FB05463F4B5B6F13F0020F06D0FFF723
:1012B80091FB401B0228F5D9032004E1236813F0B1
:1012C800040F78D0374B1B6C13F0805F0DD10023CF
:1012D8000193344B1A6C42F080521A641B6C03F071
:1012E80080530193019B012500E00025304B1B68CA
:1012F80013F4807F21D0A368012B32D0052B36D080
:10130800284B1A6F22F001021A671A6F22F00402A2
:101318001A67A368002B34D0FFF75CFB0646214B05
:101328001B6F13F0020F45D1FFF754FB801B41F2EE
:1013380088339842F3D90320C5E01D4A136843F463
:1013480080731360FFF746FB0646194B1B6813F4BE
:10135800807FD0D1FFF73EFB801B0228F5D9032000
:10136800B1E0104A136F43F001031367D1E70D4B47
:101378001A6F42F004021A671A6F42F001021A67E4
:10138800C7E7FFF727FB0646064B1B6F13F0020F54
:1013980010D0FFF71FFB801B41F288339842F3D926
:1013A800032090E00038024000004742800E474288
:1013B80000700040EDB9A369002B00F08380494A12
:1013C800926802F00C02082A51D0022B17D0464B23
:1013D80000221A60FFF7FEFA0446424B1B6813F01E
:1013E800007F42D0FFF7F6FA001B0228F5D9032048
:1013F80069E03C4A136C23F080531364DBE73A4BF3
:1014080000221A60FFF7E6FA0546364B1B6813F010
:10141800007F06D0FFF7DEFA401B0228F5D903202B
:1014280051E0E369226A1343626A43EA8213A26ABB
:101438005208013A43EA0243E26A43EA0263294A4C
:101448005360294B01221A60FFF7C4FA0446254B62
:101458001B6813F0007F06D1FFF7BCFA001B0228B7
:10146800F5D903202FE000202DE000202BE0012BF0
:101478002BD01C4B5B6803F48001E269914226D1B2
:1014880003F03F02216A8A4223D1616A47F6C0729B
:101498001A40B2EB811F1ED103F44031A26A5208F0
:1014A800013AB1EB024F18D103F07063E26AB3EB73
:1014B800026F14D1002006E001207047012002E0ED
:1014C800012000E0002002B070BD0120FBE70120F0
:1014D800F9E70120F7E70120F5E70120F3E701200C
:1014E800F1E700BF0038024060004742F8B5244BDE
:1014F8009B6803F00C03042B3DD0082B3DD1204BF7
:101508005A6802F03F025B6813F4800F12D01C4B3C
:101518005968C1F3881100231A48A1FB0001FEF79E
:101528004FFE174B5B68C3F3014301335B00B0FB0D
:10153800F3F023E0124B5B68C3F388135C010025CA
:10154800E41A65F10005AE0146EA9466A701381B66
:1015580066EB0501CC0044EA5074C500E81844F174
:1015680000018B0243EA9053840220461946002367
:10157800FEF726FED5E7034800E00348F8BD00BFA4
:1015880000380240001BB7000024F400002800F0D7
:101598009B8070B50D4604464F4B1B6803F007034C
:1015A8008B4208D2CBB24C4A1370136803F007037E
:1015B8008B4240F08B80236813F0020F17D013F092
:1015C800040F04D0454A936843F4E05393602368BA
:1015D80013F0080F04D0414A936843F460439360C2
:1015E8003E4A936823F0F003A1680B439360236895
:1015F80013F0010F32D06368012B21D09A1E012A03
:1016080025D9364A126812F0020F61D033498A6828
:1016180022F0030213438B60FFF7DCF906462F4BD9
:101628009B6803F00C036268B3EB820F16D0FFF7D8
:10163800D1F9801B41F288339842F0D9032042E067
:10164800264A126812F4003FE0D101203BE0234A09
:10165800126812F0007FD9D1012034E01E4B1B68BC
:1016680003F00703AB4207D9EAB21B4B1A701B6899
:1016780003F00703AB422DD1236813F0040F06D003
:10168800164A936823F4E053E1680B439360236898
:1016980013F0080F07D0114A936823F460432169B7
:1016A80043EAC1039360FFF721FF0C4B9B68C3F328
:1016B80003130B4AD35CD8400A4B18600A4B1868CE
:1016C800FFF73CF9002070BD012070470120FAE7C0
:1016D8000120F8E70120F6E7003C0240003802400C
:1016E800EC1E00080000002008000020014B1868CC
:1016F800704700BF0000002008B5FFF7F7FF044B54
:101708009B68C3F38223034AD35CD84008BD00BF5B
:1017180000380240FC1E000808B5FFF7E7FF044B3D
:101728009B68C3F34233034AD35CD84008BD00BF6B
:1017380000380240FC1E0008026802F10C0353E85E
:10174800003F23F490730C3242E800310029F3D1B2
:10175800026802F1140353E8003F23F00103143236
:1017680042E800310029F3D1036B012B05D0202377
:1017780080F83E30002303637047026802F10C03CF
:1017880053E8003F23F010030C3242E800310029EF
:10179800F3D1ECE790F83D30DBB2212B01D00220E9
:1017A80070478368B3F5805F17D0036A5A1C0262DA
:1017B8001A7803685A60C38C9BB2013B9BB2C384FE
:1017C8004BB90268D36823F08003D3600268D368FA
:1017D80043F04003D360002070470369002BE4D135
:1017E800036A1B880268C3F308035360036A023361
:1017F8000362E0E770B504460268136923F44053B6
:10180800C1680B4313618368026913434269134338
:10181800C2691A430168CB6823F4164323F00C030A
:101828001343CB600268536923F4407381690B4307
:1018380053610368344A934206D002F580629342AA
:1018480002D0FFF759FF01E0FFF766FFE369B3F540
:10185800004F2AD00026051846EB06012D1846EB46
:101868000101CB0043EA5573EA001546194663683F
:101878009A009B0F281846EB0101FEF7A1FC234DA7
:10188800A5FB00325109642303FB11031B0132330A
:10189800A5FB03235B0903F0F00202EB011203F03E
:1018A8000F03216813448B6070BD0026051846EBB2
:1018B80006012D1846EB0101CB0043EA5573EA00F7
:1018C8001546194662683346921846EB03032818F2
:1018D80046EB0101FEF774FC0C4DA5FB00325109E3
:1018E800642303FB1103DB003233A5FB03235B09ED
:1018F8005A0002F4F87202EB011203F007032168A0
:1019080013448B60D0E700BF001001401F85EB51E6
:1019180058B310B5044690F83D300BB3242384F82F
:101928003D302268D36823F40053D3602046FFF784
:1019380061FF2268136923F4904313612268536995
:1019480023F02A0353612268D36843F40053D36019
:1019580000202064202384F83D3084F83E3010BDF8
:1019680080F83C30FEF768FFD8E7012070477047E1
:1019780008B50168CA6822F04002CA60202280F8CF
:101988003D20FFF7F4FF002008BD7047704708B5F9
:10199800806B0023C385C384FFF7F8FF08BD704739
:1019A80090F83E30DBB2222B67D18368B3F5805FB5
:1019B8004DD0826AB3F5805F04D0002B54D10369FF
:1019C800002B51D103685B681370836A013383620B
:1019D800C38D9BB2013B9BB2C385002B4FD100B591
:1019E80083B00268D36823F02003D3600268D36809
:1019F80023F48073D3600268536923F001035361B1
:101A0800202380F83E30036B012B33D1002303637E
:101A1800026802F10C0353E8003F23F010030C3274
:101A280042E800310029F3D103681A6812F0100F58
:101A380006D0002201921A6801925B680193019B0B
:101A4800818DFFF7ACFF002003B05DF804FB02694D
:101A5800002AAED1826A03685B68C3F30803138067
:101A6800836A02338362B3E703685B6803F07F032A
:101A78001370AAE7FFF789FFE5E702207047002007
:101A88007047000030B583B0044602681368D06818
:101A9800516913F00F0505D113F0200F02D010F093
:101AA800200F19D12DB111F0010119D110F4907F37
:101AB80016D1216B01297DD013F0800F03D010F0CF
:101AC800800F40F0158113F0400F03D010F0400F45
:101AD80040F0128103B030BD2046FFF761FFF9E7FF
:101AE80013F0010F06D010F4807F03D0226C42F06F
:101AF8000102226413F0040F04D019B1226C42F0E1
:101B08000202226413F0020F04D019B1226C42F0D1
:101B18000402226413F0080F07D010F0200F00D140
:101B280019B1226C42F008022264226C002AD1D03A
:101B380013F0200F02D010F0200F29D123685B6921
:101B480003F04003226C12F0080F00D163B3204663
:101B5800FFF7F2FD23685B6913F0400F20D022687D
:101B680002F1140353E8003F23F04003143242E823
:101B780000310029F3D1A36B73B1614A1A65A06BD8
:101B8800FFF7BAF90028A5D0A06B036D9847A1E725
:101B98002046FFF705FFD1E72046FFF7F7FE99E754
:101BA8002046FFF7F3FE95E72046FFF7EFFE0023F8
:101BB80023648FE713F0100F3FF47EAF10F0100F7F
:101BC8003FF47AAF0023019313680193536801939C
:101BD800019B536913F0400F50D0A26B13685B68E8
:101BE8009BB2002B3FF476AFA18D99427FF672AF7E
:101BF800E385D369B3F5807F37D0226802F10C03FF
:101C080053E8003F23F480730C3242E80031002986
:101C1800F3D1226802F1140353E8003F23F00103D3
:101C2800143242E800310029F3D1226802F114038A
:101C380053E8003F23F04003143242E80031002902
:101C4800F3D1202384F83E3000232363226802F175
:101C58000C0353E8003F23F010030C3242E8003134
:101C68000029F3D1A06BFFF7FDF8A18DE38D9BB29E
:101C7800C91A89B22046FFF792FE2BE7A18DE38DA2
:101C88009BB2C91A89B2E38D9BB2002B3FF422AFF5
:101C980000293FF41FAF226802F10C0353E8003F0C
:101CA80023F490730C3242E800300028F3D1226804
:101CB80002F1140353E8003F23F00103143242E811
:101CC80000300028F3D1202384F83E30002323631A
:101CD800226802F10C0353E8003F23F010030C3292
:101CE80042E800300028F3D12046FFF758FEF1E61D
:101CF8002046FFF74FFDEDE62046FFF739FEE9E6FF
:101D08009719000870B50D4E0D4D761BB61006D00C
:101D1800002455F8043B01349847A642F9D1094EEE
:101D2800094D761B00F0D2F8B61006D0002455F8FD
:101D3800043B01349847A642F9D170BD101F000832
:101D4800101F0008181F0008101F0008F0B48607AD
:101D580046D0541E002A3CD0CAB2034601E0013CDA
:101D680037D303F8012B9D07F9D1032C2AD9CDB21B
:101D780045EA05250F2C45EA054534D9A4F110029A
:101D880022F00F0C03F120071609674403F1100233
:101D980042E9045542E902551032BA42F8D1721CA0
:101DA80014F00C0F03EB021204F00F0613D0331FCC
:101DB80023F003030433134442F8045B9342FBD13A
:101DC80006F003042CB1CAB21C4403F8012B9C4250
:101DD800FBD1F0BC704734461346002CF3D1F8E72A
:101DE80014460346C1E71A462646E0E7024B13B1FC
:101DF800024800F005B8704700000000151E0008F2
:101E0800002301461A46184600F01AB838B5084BA0
:101E1800084D5B1B9C1007D0043B1D44013C55F842
:101E280004399847002CF9D1BDE8384000F054B87F
:101E38001C1F0008181F0008704700BF704700BF2C
:101E48002DE9F047DFF880A00646DAF8000098464A
:101E58000F469146FFF7F0FF1A4B1B68D3F848412D
:101E680024B365681F2D26DC5EB9AB1C0135DAF892
:101E78000000656044F82370FFF7E0FF0020BDE82C
:101E8800F08704EB85030121C3F88890D4F88821F2
:101E9800A9400A43022EC4F88821C3F80881E4D176
:101EA800D4F88C311943C4F88C11DEE703F5A67415
:101EB800C3F84841D5E7DAF80000FFF7BFFF4FF055
:101EC800FF30DCE7041F000838040020F8B500BF25
:101ED800F8BC08BC9E467047F8B500BFF8BC08BC03
:041EE8009E4670475B
:101EEC0000000000000000000102030406070809BE
:0C1EFC00000000000102030410000020A0
:081F0800F0E2FF7F0100000080
:081F1000F51D0008AD010008F9
:041F18008901000833
:101F1C000024F4000100000010000000000000008C
:101F2C0000000000FC02002064030020CC03002011
:101F3C000000000000000000000000000000000095
:101F4C000000000000000000000000000000000085
:101F5C000000000000000000000000000000000075
:101F6C000000000000000000000000000000000065
:101F7C000000000000000000000000000000000055
:101F8C000000000000000000000000000000000045
:101F9C000000000000000000000000000000000035
:101FAC000000000000000000000000000000000025
:101FBC000000000000000000000000000000000015
:101FCC000000000000000000010000000000000004
:101FDC000E33CDAB34126DE6ECDE05000B000000C9
:101FEC0000000000000000000000000000000000E5
:101FFC0000000000000000000000000000000000D5
:10200C0000000000000000000000000000000000C4
:10201C0000000000000000000000000000000000B4
:0C234C000000000000000000F40400206D
:04000005080008F1F6
:00000001FF
