:020000040800F2
:1000000000000220451D00080D1900080F19000806
:100010001119000813190008151900080000000044
:100020000000000000000000000000001719000898
:1000300019190008000000001B1900081D1900080C
:10004000951D0008951D0008951D0008951D0008C8
:10005000951D0008951D0008951D0008951D0008B8
:10006000951D0008951D0008951D0008951D0008A8
:10007000951D0008951D0008951D0008951D000898
:10008000951D0008951D0008951D0008951D000888
:1000900025190008951D0008951D0008951D0008EC
:1000A000951D0008951D0008951D0008951D000868
:1000B000951D0008951D0008951D0008951D000858
:1000C000951D0008951D0008951D0008951D000848
:1000D000951D000835190008951D0008951D00089C
:1000E000951D0008951D0008951D0008951D000828
:1000F000951D0008951D0008951D0008951D000818
:10010000951D0008951D0008951D0008951D000807
:10011000951D0008951D0008951D0008951D0008F7
:10012000951D0008951D0008951D0008951D0008E7
:10013000951D0008951D0008951D0008951D0008D7
:1001400045190008951D0008951D0008951D00081B
:10015000951D0008951D0008951D0008951D0008B7
:10016000951D0008951D0008951D0008951D0008A7
:10017000951D0008951D0008951D00080000000051
:08018000951D0008951D000803
:1001C00010B5054C237833B9044B13B10448AFF391
:1001D00000800123237010BDC8090020000000002A
:1001E000087F000808B5034B1BB103490348AFF370
:1001F000008008BD00000000CC090020087F000836
:100200004FF0FF0C1CEAD0521EBF1CEAD15392EAF9
:100210000C0F93EA0C0F6FD01A4480EA010C4002D5
:1002200018BF5FEA41211ED04FF0006343EA50102F
:1002300043EA5111A0FB01310CF00040B1F5000F71
:100240003EBF490041EAD3715B0040EA010062F120
:100250007F02FD2A1DD8B3F1004F40EBC25008BF0A
:1002600020F00100704790F0000F0CF0004C08BF28
:1002700049024CEA502040EA51207F3AC2BFD2F1F5
:10028000FF0340EAC250704740F400004FF0000303
:10029000013A5DDC12F1190FDCBF00F0004070473D
:1002A000C2F10002410021FA02F1C2F1200200FA7B
:1002B00002FC5FEA310040F1000053EA4C0308BF42
:1002C00020EADC70704792F0000F00F0004C02BF93
:1002D000400010F4000F013AF9D040EA0C0093F00E
:1002E000000F01F0004C02BF490011F4000F013B68
:1002F000F9D041EA0C018FE70CEAD15392EA0C0FD6
:1003000018BF93EA0C0F0AD030F0004C18BF31F040
:10031000004CD8D180EA010000F00040704790F016
:10032000000F17BF90F0004F084691F0000F91F0BA
:10033000004F14D092EA0C0F01D142020FD193EA80
:100340000C0F03D14B0218BF084608D180EA010008
:1003500000F0004040F0FE4040F40000704740F0E4
:10036000FE4040F44000704781F0004102E000BFD1
:1003700083F0004330B54FEA41044FEA430594EA65
:10038000050F08BF90EA020F1FBF54EA000C55EAA0
:10039000020C7FEA645C7FEA655C00F0E2804FEA71
:1003A0005454D4EB5555B8BF6D420CDD2C4480EA53
:1003B000020281EA030382EA000083EA010180EA83
:1003C000020281EA0303362D88BF30BD11F0004FD1
:1003D0004FEA01314FF4801C4CEA113102D0404207
:1003E00061EB410113F0004F4FEA03334CEA133342
:1003F00002D0524263EB430394EA050F00F0A7805A
:10040000A4F10104D5F1200E0DDB02FA0EFC22FA54
:1004100005F2801841F1000103FA0EF2801843FA48
:1004200005F359410EE0A5F120050EF1200E012A39
:1004300003FA0EFC28BF4CF0020C43FA05F3C01877
:1004400051EBE37101F0004507D54FF0000EDCF1F0
:10045000000C7EEB00006EEB0101B1F5801F1BD399
:10046000B1F5001F0CD349085FEA30004FEA3C0C9D
:1004700004F101044FEA445212F5800F80F09A8093
:10048000BCF1004F08BF5FEA500C50F1000041EB97
:10049000045141EA050130BD5FEA4C0C404141EB9B
:1004A0000101013C28BFB1F5801FE9D291F0000F96
:1004B00004BF01460020B1FA81F308BF2033A3F145
:1004C0000B03B3F120020CDA0C3208DD02F1140C3C
:1004D000C2F10C0201FA0CF021FA02F10CE002F177
:1004E0001402D8BFC2F1200C01FA02F120FA0CFC70
:1004F000DCBF41EA0C019040E41AA2BF01EB0451B9
:10050000294330BD6FEA04041F3C1CDA0C340EDCB6
:1005100004F11404C4F1200220FA04F001FA02F3F9
:1005200040EA030021FA04F345EA030130BDC4F1B7
:100530000C04C4F1200220FA02F001FA04F340EAAC
:100540000300294630BD21FA04F0294630BD94F05D
:10055000000F83F4801306BF81F480110134013D44
:100560004EE77FEA645C18BF7FEA655C29D094EAB5
:10057000050F08BF90EA020F05D054EA000C04BF33
:100580001946104630BD91EA030F1EBF002100201E
:1005900030BD5FEA545C05D14000494128BF41F0BD
:1005A000004130BD14F580043CBF01F5801130BD21
:1005B00001F0004545F0FE4141F470014FF00000AC
:1005C00030BD7FEA645C1ABF194610467FEA655C5D
:1005D0001CBF0B46024650EA013406BF52EA0335FF
:1005E00091EA030F41F4002130BD00BF90F0000FED
:1005F00004BF0021704730B54FF4806404F1320429
:100600004FF000054FF0000150E700BF90F0000FE1
:1006100004BF0021704730B54FF4806404F1320408
:1006200010F0004548BF40424FF000013EE700BFD8
:1006300042004FEAE2014FEA31014FEA02701FBF68
:1006400012F07F4393F07F4F81F06051704732F09A
:100650007F4208BF704793F07F4F04BF41F40021F1
:10066000704730B54FF4607401F0004521F000414F
:100670001CE700BF50EA010208BF704730B54FF0D9
:1006800000050AE050EA010208BF704730B511F0DA
:10069000004502D5404261EB41014FF4806404F112
:1006A00032045FEA915C3FF4D8AE4FF003025FEA98
:1006B000DC0C18BF03325FEADC0C18BF033202EB1C
:1006C000DC02C2F1200300FA03FC20FA02F001FA76
:1006D00003FE40EA0E0021FA02F11444BDE600BF19
:1006E00070B54FF0FF0C4CF4E06C1CEA11541DBFC8
:1006F0001CEA135594EA0C0F95EA0C0F00F0DEF893
:100700002C4481EA030621EA4C5123EA4C5350EA77
:10071000013518BF52EA033541F4801143F48013C8
:1007200038D0A0FB02CE4FF00005E1FB02E506F059
:100730000042E0FB03E54FF00006E1FB03569CF0AE
:10074000000F18BF4EF0010EA4F1FF04B6F5007FB4
:1007500064F5407404D25FEA4E0E6D4146EB060626
:1007600042EAC62141EA55514FEAC52040EA5E50AF
:100770004FEACE2EB4F1FD0C88BFBCF5E06F1ED859
:10078000BEF1004F08BF5FEA500E50F1000041EB90
:10079000045170BD06F0004646EA010140EA02003D
:1007A00081EA0301B4EB5C04C2BFD4EB0C0541EA5F
:1007B000045170BD41F480114FF0000E013C00F374
:1007C000AB8014F1360FDEBF002001F0004170BD98
:1007D000C4F10004203C35DA0C341BDC04F11404B1
:1007E000C4F1200500FA05F320FA04F001FA05F23D
:1007F00040EA020001F0004221F0004110EBD3700A
:1008000021FA04F642EB06015EEA430E08BF20EA35
:10081000D37070BDC4F10C04C4F1200500FA04F3D8
:1008200020FA05F001FA04F240EA020001F000416A
:1008300010EBD37041F100015EEA430E08BF20EADD
:10084000D37070BDC4F1200500FA05F24EEA020E25
:1008500020FA04F301FA05F243EA020321FA04F054
:1008600001F0004121FA04F220EA020000EBD3700B
:100870005EEA430E08BF20EAD37070BD94F0000F0B
:100880000FD101F00046400041EB010111F4801F3F
:1008900008BF013CF7D041EA060195F0000F18BFF0
:1008A000704703F00046520043EB030313F4801F2C
:1008B00008BF013DF7D043EA0603704794EA0C0FE6
:1008C0000CEA135518BF95EA0C0F0CD050EA4106FC
:1008D00018BF52EA4306D1D181EA030101F0004179
:1008E0004FF0000070BD50EA410606BF10461946A1
:1008F00052EA430619D094EA0C0F02D150EA0136AD
:1009000013D195EA0C0F05D152EA03361CBF1046ED
:1009100019460AD181EA030101F0004141F0FE418C
:1009200041F470014FF0000070BD41F0FE4141F410
:10093000780170BD70B54FF0FF0C4CF4E06C1CEA10
:1009400011541DBF1CEA135594EA0C0F95EA0C0FC5
:1009500000F0A7F8A4EB050481EA030E52EA033580
:100960004FEA013100F088804FEA03334FF08055A1
:1009700045EA131343EA12634FEA022245EA1115CE
:1009800045EA10654FEA00260EF000419D4208BF7F
:10099000964244F1FD0404F5407402D25B084FEA2C
:1009A0003202B61A65EB03055B084FEA32024FF4D8
:1009B00080104FF4002CB6EB020E75EB030E22BF35
:1009C000B61A754640EA0C005B084FEA3202B6EBF5
:1009D000020E75EB030E22BFB61A754640EA5C00A4
:1009E0005B084FEA3202B6EB020E75EB030E22BF34
:1009F000B61A754640EA9C005B084FEA3202B6EB35
:100A0000020E75EB030E22BFB61A754640EADC00F3
:100A100055EA060E18D04FEA051545EA16754FEA55
:100A200006164FEAC30343EA52734FEAC2025FEA73
:100A30001C1CC0D111F4801F0BD141EA00014FF002
:100A400000004FF0004CB6E711F4801F04BF0143D3
:100A50000020B4F1FD0C88BFBCF5E06F3FF6AFAEEF
:100A6000B5EB030C04BFB6EB020C5FEA500C50F17F
:100A7000000041EB045170BD0EF0004E4EEA113102
:100A800014EB5C04C2BFD4EB0C0541EA045170BD09
:100A900041F480114FF0000E013C90E645EA060E4D
:100AA0008DE60CEA135594EA0C0F08BF95EA0C0F7B
:100AB0003FF43BAF94EA0C0F0AD150EA01347FF4C3
:100AC00034AF95EA0C0F7FF425AF104619462CE79A
:100AD00095EA0C0F06D152EA03353FF4FDAE1046FD
:100AE000194622E750EA410618BF52EA43067FF44E
:100AF000C5AE50EA41047FF40DAF52EA43057FF4DE
:100B0000EBAE12E74FF0FF3C06E000BF4FF0010CE8
:100B100002E000BF4FF0010C4DF804CD4FEA410C4C
:100B20007FEA6C5C4FEA430C18BF7FEA6C5C1BD019
:100B300001B050EA410C0CBF52EA430C91EA030F9A
:100B400002BF90EA020F0020704710F1000F91EAF7
:100B5000030F58BF994208BF90422CBFD8176FEAC5
:100B6000E37040F0010070474FEA410C7FEA6C5C93
:100B700002D150EA013C07D14FEA430C7FEA6C5C9A
:100B8000D6D152EA033CD3D05DF8040B704700BFC6
:100B90008446104662468C461946634600E000BF14
:100BA00001B5FFF7B7FF002848BF10F1000F01BDE6
:100BB0004DF808EDFFF7F4FF0CBF012000205DF8B1
:100BC00008FB00BF4DF808EDFFF7EAFF34BF012036
:100BD00000205DF808FB00BF4DF808EDFFF7E0FFCF
:100BE00094BF012000205DF808FB00BF4DF808ED20
:100BF000FFF7CEFF94BF012000205DF808FB00BF87
:100C00004DF808EDFFF7C4FF34BF012000205DF868
:100C100008FB00BF4FEA410212F5001215D211D5B0
:100C20006FF47873B3EB625212D94FEAC12343F0E9
:100C3000004343EA505311F0004F23FA02F018BF6B
:100C4000404270474FF00000704750EA013005D134
:100C500011F0004008BF6FF0004070474FF00000F7
:100C6000704700BF80F0004002E000BF81F000410B
:100C700042001FBF5FEA410392EA030F7FEA226C42
:100C80007FEA236C6AD04FEA1262D2EB1363C1BFD2
:100C9000D218414048404140B8BF5B42192B88BF41
:100CA000704710F0004F40F4000020F07F4018BF64
:100CB000404211F0004F41F4000121F07F4118BF84
:100CC000494292EA030F3FD0A2F1010241FA03FC2C
:100CD00010EB0C00C3F1200301FA03F100F0004314
:100CE00002D5494260EB4000B0F5000F13D3B0F1DC
:100CF000807F06D340084FEA310102F10102FE2A4B
:100D000051D2B1F1004F40EBC25008BF20F00100BA
:100D100040EA03007047490040EB0000013A28BF59
:100D2000B0F5000FEDD2B0FA80FCACF1080CB2EBDC
:100D30000C0200FA0CF0AABF00EBC250524218435A
:100D4000BCBFD0401843704792F0000F81F40001FF
:100D500006BF80F400000132013BB5E74FEA4103D2
:100D60007FEA226C18BF7FEA236C21D092EA030F3E
:100D700004D092F0000F08BF0846704790EA010FB8
:100D80001CBF0020704712F07F4F04D1400028BFE5
:100D900040F00040704712F100723CBF00F50000C7
:100DA000704700F0004343F0FE4040F400007047FD
:100DB0007FEA226216BF08467FEA236301464202A9
:100DC00006BF5FEA412390EA010F40F480007047BC
:100DD0004FF0000304E000BF10F0004348BF404262
:100DE0005FEA000C08BF704743F0964301464FF09E
:100DF00000001CE050EA010208BF70474FF00003FA
:100E00000AE000BF50EA010208BF704711F000433A
:100E100002D5404261EB41015FEA010C02BF84460A
:100E20000146002043F0B64308BFA3F18053A3F569
:100E30000003BCFA8CF2083AA3EBC25310DB01FAB0
:100E400002FC634400FA02FCC2F12002BCF1004F34
:100E500020FA02F243EB020008BF20F001007047C5
:100E600002F1200201FA02FCC2F1200250EA4C0019
:100E700021FA02F243EB020008BF20EADC7070475F
:100E80004FF0FF3C06E000BF4FF0010C02E000BF56
:100E90004FF0010C4DF804CD4FEA40024FEA4103F8
:100EA0007FEA226C18BF7FEA236C11D001B052EAAE
:100EB000530C18BF90EA010F58BFB2EB030088BF74
:100EC000C81738BF6FEAE17018BF40F001007047E3
:100ED0007FEA226C02D15FEA402C05D17FEA236CC5
:100EE000E4D15FEA412CE1D05DF8040B704700BF0C
:100EF000844608466146FFE70FB5FFF7C9FF0028A3
:100F000048BF10F1000F0FBD4DF808EDFFF7F4FFDB
:100F10000CBF012000205DF808FB00BF4DF808ED74
:100F2000FFF7EAFF34BF012000205DF808FB00BF97
:100F30004DF808EDFFF7E0FF94BF012000205DF8B9
:100F400008FB00BF4DF808EDFFF7D2FF94BF01206A
:100F500000205DF808FB00BF4DF808EDFFF7C8FF63
:100F600034BF012000205DF808FB00BF4FEA4002BB
:100F7000B2F1FE4F0FD34FF09E03B3EB12620DD9C7
:100F80004FEA002343F0004310F0004F23FA02F031
:100F900018BF404270474FF00000704712F1610FD8
:100FA00001D1420205D110F0004008BF6FF00040AF
:100FB00070474FF00000704753B94AB9002908BF85
:100FC00000281CBF4FF0FF314FF0FF3000F06CB92C
:100FD000ADF1080C6DE904CE00F006F8DDF804E090
:100FE000DDE9022304B070472DE9F047089E0D4665
:100FF00004468E46002B40F082808A42174646D92E
:10100000B2FA82F24AB1C2F1200105FA02F320FAE3
:1010100001F1974041EA030E94404FEA1748230C30
:10102000BEFBF8FCB9B208FB1CEE43EA0E430CFB16
:1010300001F098420AD9FB180CF1FF3580F01681B7
:10104000984240F21381ACF1020C3B441B1AA4B24B
:10105000B3FBF8F008FB103344EA034400FB01F152
:10106000A14209D93C1900F1FF3380F00181A1426E
:1010700040F2FE8002383C44641A40EA0C400021F1
:101080001EB1D4400023C6E90043BDE8F08702B991
:10109000FFDEB2FA82F2002A4FD1CB1B4FEA174E85
:1010A0001FFA87F80121B3FBFEFC250C0EFB1C3355
:1010B00045EA034508FB0CF3AB4207D97D190CF157
:1010C000FF3002D2AB4200F2E7808446ED1AA3B2B1
:1010D000B5FBFEF00EFB105543EA054408FB00F893
:1010E000A04507D93C1900F1FF3302D2A04500F218
:1010F000D7801846A4EB080440EA0C40C0E78B42B6
:1011000008D9002E00F0AF800021C6E9000508468E
:10111000BDE8F087B3FA83F100294BD1AB4202D38B
:10112000824200F2B780841A65EB030301209E46D9
:10113000002EAAD0C6E9004EA7E7C2F1200C01FAA2
:1011400002F3974020FA0CF04FEA174E21FA0CFCFC
:101150001843BCFBFEF1050C0EFB11CC1FFA87F8FF
:1011600045EA0C4501FB08F3AB4204FA02F409D945
:101170007D1901F1FF3C80F08B80AB4240F288800A
:1011800002393D44EB1A85B2B3FBFEF00EFB10337F
:1011900045EA034500FB08F3AB4207D97D1900F18E
:1011A000FF3C71D2AB426FD902383D44EB1A40EAA2
:1011B000014178E7C1F1200C8B4022FA0CF71F4364
:1011C00020FA0CF405FA01F34FEA174E25FA0CF554
:1011D0001C43230CB5FBFEF91FFA87F80EFB1955CB
:1011E00043EA054509FB08FAAA4502FA01F200FAAA
:1011F00001F308D97D1909F1FF3047D2AA4545D935
:10120000A9F102093D44A5EB0A05A4B2B5FBFEF025
:101210000EFB105544EA054400FB08F8A04507D929
:101220003C1900F1FF352DD2A0452BD902383C44A2
:1012300040EA0940A4EB0804A0FB02894C45C646DD
:101240004D4619D316D05EB1B3EB0E0264EB050424
:1012500004FA0CFCCA404CEA0202CC40C6E9002465
:101260000021BDE8F087314630460EE7AC46EDE69A
:10127000184601E74345E6D2B8EB020E69EB0705D5
:101280000138E0E72846D3E760468FE78146BAE7B2
:10129000614677E708464BE7ACF1020C3D4415E7A1
:1012A00002383C4426E700BF704700BF0000000042
:1012B00001F0FF01102A2BDB10F0070F08D010F807
:1012C000013B013A8B422DD010F0070F42B3F6D10B
:1012D000F0B441EA012141EA014122F007047FF024
:1012E00000070023F0E80256083C85EA010586EA7B
:1012F000010685FA47F5A3FA87F586FA47F6A5FAB7
:1013000087F68EB9EED1F0BC01F0FF0102F00702C2
:1013100032B110F8013B013A83EA010313B1F8D16D
:101320000020704701387047002D06BF354603384E
:10133000073815F0010F07D1013015F4807F02BF87
:10134000013015F4C03F0130F0BC0138704700BFD8
:10135000844641EA000313F003036DD1403A41D3C0
:1013600051F8043B40F8043B51F8043B40F8043B7F
:1013700051F8043B40F8043B51F8043B40F8043B6F
:1013800051F8043B40F8043B51F8043B40F8043B5F
:1013900051F8043B40F8043B51F8043B40F8043B4F
:1013A00051F8043B40F8043B51F8043B40F8043B3F
:1013B00051F8043B40F8043B51F8043B40F8043B2F
:1013C00051F8043B40F8043B51F8043B40F8043B1F
:1013D00051F8043B40F8043B51F8043B40F8043B0F
:1013E000403ABDD2303211D351F8043B40F8043BAF
:1013F00051F8043B40F8043B51F8043B40F8043BEF
:1014000051F8043B40F8043B103AEDD20C3205D3BE
:1014100051F8043B40F8043B043AF9D2043208D0B6
:10142000D2071CBF11F8013B00F8013B01D30B8828
:1014300003806046704700BF082A13D38B078DD006
:1014400010F003038AD0C3F10403D21ADB071CBFD8
:1014500011F8013B00F8013B80D331F8023B20F842
:10146000023B7BE7043AD9D3013A11F8013B00F87B
:10147000013BF9D20B7803704B7843708B78837003
:1014800060467047000000000000000000000000FF
:10149000000000000000000000000000000000004C
:1014A000000000000000000000000000000000003C
:1014B000000000000000000000000000000000002C
:1014C00090F800F06DE9024520F007016FF0000C84
:1014D00010F0070491F820F040F049804FF000042C
:1014E0006FF00700D1E9002391F840F000F1080007
:1014F00082FA4CF2A4FA8CF283FA4CF3A2FA8CF33F
:101500004BBBD1E9022382FA4CF200F10800A4FAA5
:101510008CF283FA4CF3A2FA8CF3E3B9D1E90423F9
:1015200082FA4CF200F10800A4FA8CF283FA4CF330
:10153000A2FA8CF37BB9D1E9062301F1200182FAEA
:101540004CF200F10800A4FA8CF283FA4CF3A2FAF0
:101550008CF3002BC6D0002A04BF04301A4612BAFE
:10156000B2FA82F2FDE8024500EBD2007047D1E901
:10157000002304F00305C4F100004FEAC50514F090
:10158000040F91F840F00CFA05F562EA05021CBF61
:1015900063EA050362464FF00004A9E74FEA410CF5
:1015A0007FEA6C5C02D150EA013C0AD14FEA430C5D
:1015B0007FEA6C5C02D152EA033C02D14FF000009A
:1015C00070474FF00100704708B50D480D4B0360A0
:1015D0000323436000238360C3604FF41022026141
:1015E0004FF400124261037643768376C376037725
:1015F000437700F037FC00B908BD00F0DDF8FBE7E9
:10160000E80900200064004008B50D480D4B036058
:101610000323436000238360C3604FF41022026100
:101620004FF400124261037643768376C3760377E4
:10163000437700F017FC00B908BD00F0BDF8FBE7E8
:10164000100A00200068004010B58AB000230593FE
:10165000069307930893099303683F4A934204D083
:101660003E4A934237D00AB010BD3D4A1368013359
:101670001360012B22D0002401943A4B1A6B42F0E4
:1016800002021A631B6B03F002030193019B4FF4E8
:1016900040730593022306930794032308930923B9
:1016A000099305A9304801F06BF822462146142021
:1016B00000F0B0FF142000F0E1FFD4E70023009316
:1016C000284B1A6C42F000721A641B6C03F0007312
:1016D0000093009BCFE700230293224B1A6C42F049
:1016E00080621A641B6C03F080630293029B1C4AA5
:1016F000136801331360012B21D000240494194B8B
:101700001A6B42F002021A631B6B03F0020304938C
:10171000049B6023059302230693079403230893F5
:101720000923099305A9104801F02AF82246214609
:10173000402000F06FFF402000F0A0FF93E700235F
:101740000393084B1A6C42F000721A641B6C03F08E
:1017500000730393039BD0E70064004000680040DF
:10176000E4090020003802400004024084B0002256
:101770000192104B196B41F002011963196B01F0D2
:101780000201019101990292196B41F00101196363
:10179000196B01F001010291029903921A6B42F058
:1017A00080021A631B6B03F080030393039B04B056
:1017B000704700BF0038024072B6FEE700B595B032
:1017C0003022002108A802F071FA00230393049349
:1017D0000593069307930193204A116C41F08051C1
:1017E0001164126C02F080520192019A02931C4B18
:1017F0001A6842F480421A601B6803F48043029323
:10180000029B012308934FF48033099302230E9324
:101810004FF480020F9206221092A8221192129386
:101820000423139308A801F095F898B90F230393A4
:1018300002230493002305934FF4A05306934FF41F
:1018400080530793052103A801F0D0FA20B915B001
:101850005DF804FBFFF7B0FFFFF7AEFF0038024072
:101860000070004080B584B000F0BCFAFFF7A6FF1E
:10187000FFF77CFFFFF7A8FEFFF7C6FE00F090F829
:1018800002F092F8104C2068FFF770FB00B203469C
:101890000246014601F0FEFF0C4B9E691F6B20685B
:1018A000FEF7C6FE04460D463846FEF7C1FECDE9FA
:1018B00002013046FEF7BCFECDE9000122462B4670
:1018C000034800F0E7F8DDE708000020580C00208E
:1018D000207F000882B0002100910B4B5A6C42F42B
:1018E00080425A645A6C02F480420092009A01913C
:1018F0001A6C42F080521A641B6C03F080530193FF
:10190000019B02B0704700BF00380240FEE7FEE7CF
:10191000FEE7FEE7FEE770477047704708B500F046
:101920007BFA08BD08B5024800F03CFD08BD00BFC9
:10193000E809002008B5024801F080FD08BD00BF9D
:10194000100B002008B5024800F02CFD08BD00BFB8
:10195000100A002010B503460C4A0D490D480068D6
:1019600040B10C4800680344521A934206D8094A11
:10197000136010BD0748084C0460F2E702F06CF9F0
:101980000C2303604FF0FF30F3E700BF000002209C
:10199000000400003C0A00204811002070470000AD
:1019A00008B50D480D4B03604FF4E133436000234D
:1019B0008360C36003610C2242618361C36101F0F3
:1019C00019FC28B901220649034801F094FE08BD1C
:1019D000FFF7F2FEF6E700BF100B002000100140F9
:1019E000080B0020F0B589B00023039304930593FE
:1019F00006930793026803F1804303F588339A4204
:101A000001D009B0F0BD0024009403F594335A6C62
:101A100042F010025A645A6C02F010020092009ACE
:101A200001941A6B42F002021A631A6B02F002026E
:101A30000192019A02941A6B42F001021A631B6B25
:101A400003F001030293029B802303930227049770
:101A50000594032606960725079503A90B4800F071
:101A60008FFE4FF400730393049705940696079531
:101A700003A9074800F084FE22462146252000F0F5
:101A8000C9FD252000F0FAFDBBE700BF00040240BD
:101A9000000002400FB410B502AA52F8041B084B14
:101AA0001A60084C204602F065F9642382B2214690
:101AB000054801F0CEFBBDE8104004B0704700BF00
:101AC0000C0B0020540B0020100B00202DE9F041DE
:101AD00000231C4603E0212A0AD00133DBB2C72BC6
:101AE00019D84E4AD25C3D2AF5D15C1CE4B2F2E72B
:101AF000013BDBB2494A125D2D2A0ED000251B1B8B
:101B0000DBB20133DBB2042B0BD0052B2ED0062B1E
:101B100053D0002026E00023ECE70134E4B2012595
:101B2000EDE73E4F17F80480A8F13008A31CF85CDD
:101B30003038FFF751F93A49FEF762FB0646404656
:101B4000FFF74AF93146FFF793F806460334385D4C
:101B50003038FFF741F93349FEF752FB0146304672
:101B6000FFF786F8002D56D1BDE8F0812B4F3B5D85
:101B7000303B03EB8303621CBE5C303E06EB430646
:101B8000E31CF85C3038FFF727F92549FEF738FBEE
:101B900080463046FFF720F94146FFF769F80646D0
:101BA0000434385D3038FFF717F91E49FEF728FB7B
:101BB00001463046FFF75CF8D4E7184E335DA3F1D9
:101BC0003007631CF35C303B03EB83035B00642250
:101BD00002FB0733A21CB75C303F1F44231DF05C9F
:101BE0003038FFF7F9F80E49FEF70AFB8046384611
:101BF000FFF7F2F84146FFF73BF807460534305D42
:101C00003038FFF7E9F80749FEF7FAFA0146384697
:101C1000FFF72EF8A6E700F10040A5E7400A0020F4
:101C2000CDCCCC3D0AD7233C10B50446FFF74EFF80
:101C3000012C00D010BD214B1B78502B09D0492B13
:101C400015D0442B21D0542BF4D11D4B1860002308
:101C500030E01C4B1860002306E0C3EBC3011A4AB6
:101C600002EB0112D0600133032BF6DDE2E7174BE4
:101C70001860002306E0C3EBC301134A02EB011214
:101C800010610133032BF6DDD4E7114B18600023FC
:101C900006E0C3EBC3010C4A02EB011250610133B1
:101CA000032BF6DDC6E7C3EBC301074A02EB0112C3
:101CB00050600133032BF6DDBCE700BF400A002073
:101CC0000800002004000020580C0020380A0020E2
:101CD000000000200268164B9A4200D0704710B5F1
:101CE000144A138801339BB21380013B124A1278C5
:101CF0001249CA54212A07D00F4900230B70012230
:101D00000F4801F0F8FC10BD00240A4B1B88A342C9
:101D100004DD0120FFF788FF0134F6E7C822002127
:101D2000064801F0C3FF034B00221A80E4E700BF1E
:101D3000001001400A0B0020080B0020400A002080
:101D4000100B0020DFF834D00D480E490E4A002356
:101D500002E0D458C4500433C4188C42F9D30B4A5F
:101D60000B4C002301E013600432A242FBD3FFF7C7
:101D700015FE01F077FFFFF775FD704700000220A8
:101D800000000020C8090020EC810008C8090020DC
:101D900044110020FEE7000010B504460E4B1878F1
:101DA0004FF47A73B3FBF0F30C4A1068B0FBF3F016
:101DB00000F072FC68B90F2C01D901200AE0002262
:101DC00021464FF0FF3000F025FC054B1C60002041
:101DD00000E0012010BD00BF100000200C0000201A
:101DE0001400002008B50B4B1A6842F400721A6008
:101DF0001A6842F480621A601A6842F480721A60AB
:101E0000032000F0F5FB0F20FFF7C6FFFFF762FD90
:101E1000002008BD003C0240034A1168034B1B78B8
:101E20000B441360704700BF540C002010000020CA
:101E3000014B1868704700BF540C002038B50446A9
:101E4000FFF7F6FF0546B4F1FF3F02D0044B1B78C5
:101E50001C44FFF7EDFF401BA042FAD338BD00BF82
:101E600010000020002800F0A18038B5044690F84A
:101E70002030D3B12268136843F001031360FFF7E9
:101E8000D7FF054623685A6812F0010F10D1FFF7FB
:101E9000CFFF401B0A28F5D9636A43F4003363621D
:101EA000052384F82030012038BDFFF7CDFBE1E7A2
:101EB0001A6822F002021A60FFF7BAFF054623688B
:101EC0005A6812F0020F0DD0FFF7B2FF401B0A282C
:101ED000F5D9636A43F400336362052384F8203044
:101EE0000120E1E7227E012A3DD01A6822F080021B
:101EF0001A60637E012B3BD02268136823F04003F5
:101F00001360A37E012B39D02268136823F02003CD
:101F10001360E37E012B37D02268136843F010036F
:101F20001360237F012B35D02268136823F0080348
:101F30001360637F012B33D02268136823F00403FE
:101F40001360A368E2681343226913436269134371
:101F50006268013A21681343CB610020606201236B
:101F600084F82030A0E71A6842F080021A60C0E7C7
:101F70002268136843F040031360C2E722681368C5
:101F800043F020031360C4E72268136823F01003B2
:101F90001360C6E72268136843F008031360C8E7BC
:101FA0002268136843F004031360CAE701207047F6
:101FB00090F82030013BDBB2012B05D9436A43F492
:101FC000802343620120704770B4444BD3F8002251
:101FD00042F00102C3F80022D3F8002222F47C521E
:101FE000C3F80022D3F80022486A42EA0022C3F86C
:101FF00000224A6902F01F02012000FA02F2D3F81F
:102000001C02D44320EA0200C3F81C02CB69B3B916
:10201000324BD3F80C022040C3F80C02CE688D88F6
:10202000486945EA0645483043F830508E680888CC
:102030004D6940EA0640483503EBC5035860CB695B
:10204000012B1DD08B69002B32D12448D0F80432EB
:102050002340C0F804320B698BBB204BD3F8140229
:102060000440C3F814420B6A012B2FD01B4AD2F84C
:10207000003223F00103C2F80032002070BC704728
:10208000164BD3F80C021043C3F80C020E688D886F
:10209000486945EA0645483043F830508E688889DB
:1020A0004D6940EA0640483503EBC5035860C9E76F
:1020B0000A48D0F804321343C0F80432CBE707488B
:1020C000D0F814321343C0F81432CCE70349D1F8E6
:1020D0001C321A43C1F81C22C8E700BF006400404C
:1020E00070B5044690F82050EDB2012D06D0436A39
:1020F00043F4002343620125284670BD022380F883
:1021000020300268136823F001031360FFF790FE8C
:10211000064623685B6813F0010F0CD0FFF788FEBA
:10212000831B0A2BF5D9636A43F4003363620523EA
:1021300084F82030E0E700256562DDE770B490F8B0
:1021400020400568AD68013CE4B2012C65D815F06B
:10215000E05F5CD0C5F30164022C05D9436A43F407
:102160000003436201205DE00125A5401D608B68EE
:10217000002B39D10E68CB68056843EA465604F156
:1021800018031B01EE5003680D6904F1180603EBF8
:1021900006135D600B7D012B31D0D17993791B043F
:1021A00043EA0163517943EA0123157901682B431E
:1021B00001EB0411C1F88C31D17893781B0443EA08
:1021C0000163517843EA0123117802680B4302EB63
:1021D0000412C2F88831026818342401135943F0FC
:1021E0000103135100201DE04D6843EAC503CD688B
:1021F00006682B4304F118052D017351C3E70368EA
:1022000003EB0613596841F480715960C5E7436ACE
:1022100043F400134362012004E0436A43F4802343
:102220004362012070BC704730B490F82040013CFC
:10223000E4B2012C00F2918051B90468E46814F012
:10224000030F10D1436A43F400134362012089E075
:102250000468246914F0030F05D1436A43F40013A2
:10226000436201207EE0056801F11B0424012C5922
:1022700004F004049460002C61D1056801F11B0492
:1022800024012C59640D1460056801F11B0424011C
:102290002D5905F00205D560056825446D6805F0E7
:1022A0000F051561056825446D68C5F3072595611F
:1022B00005682C446468240C5461026802EB011226
:1022C000D2F8B8211A70026802EB0112D2F8B821D4
:1022D000C2F307225A70026802EB0112D2F8B82149
:1022E000C2F307429A70026802EB0112D2F8B821D9
:1022F000120EDA70026802EB0112D2F8BC211A71D8
:10230000026802EB0112D2F8BC21C2F307225A7113
:10231000026802EB0112D2F8BC21C2F307429A71A3
:10232000026802EB0112D2F8BC21120EDA7171B907
:102330000268D36843F02003D360002012E00568F0
:1023400001F11B0424012C59E40854609CE7026845
:10235000136943F020031361EFE7436A43F48023DA
:102360004362012030BC704790F82030013BDBB263
:10237000012B05D9436A43F480234362012070474F
:1023800002685369194351610020704770477047D4
:102390007047704770477047704770477047704785
:1023A000704770472DE9F84F054603685C69D3F81C
:1023B00004809F68D3F80CB0D3F810A0D3F818901D
:1023C00014F001063BD017F0010616D001229A60E6
:1023D00017F0020F08D117F0040F0CD117F0080600
:1023E00006D04FF4805608E0FFF7D0FF002604E047
:1023F000FFF7CFFF01E04FF4006617F4807F0DD0A8
:102400002B684FF480729A6017F4007F40F086804A
:1024100017F4806F00F0868046F4005617F4803F72
:102420000DD02B684FF480329A6017F4003F40F0D3
:10243000838017F4802F00F0838046F4004614F068
:10244000080F07D01BF0100F04D046F400762B685D
:102450001022DA6014F0040F02D01BF0080F79D1BB
:1024600014F0020F04D02B68DB6813F0030F78D14F
:1024700014F0400F07D01AF0100F04D046F4806615
:102480002B6810221A6114F0200F02D01AF0080FE6
:102490006BD114F0100F04D02B681B6913F0030FDD
:1024A0006AD114F4003F02D018F0100F68D114F470
:1024B000803F02D018F0080F69D114F4004F7AD091
:1024C00018F0040F74D014F4807F04D019F0010FB9
:1024D00001D046F0010614F4007F04D019F0020F79
:1024E00001D046F0020614F4806F04D019F0040FF6
:1024F00001D046F0040614F4006F59D019F07009A9
:1025000056D0B9F1400F65D058D8B9F1200F5ED040
:10251000B9F1300F42D146F0200644E02846FFF7DB
:1025200036FF7BE717F4006F02D046F4804675E76C
:102530002846FFF72FFF71E72846FFF729FF7EE7C0
:1025400017F4002F02D046F4803678E72846FFF7CC
:1025500022FF74E72B680822DA602846FFF71CFF89
:102560007EE7284601F04EFA82E72B6808221A61BE
:102570002846FFF713FF8CE72846FFF70EFF90E78A
:102580002B6810225A602846FFF709FF8FE72B6857
:1025900008225A602846FFF703FF8EE7B9F1100FB3
:1025A00001D146F008062A68936923F0700393610D
:1025B0002B6804225A609EB9BDE8F88FB9F1500F1C
:1025C0000BD0B9F1600FEED146F48076EBE746F020
:1025D0001006E8E746F04006E5E746F08006E2E749
:1025E0006B6A1E436E622846FFF7DBFEE4E70000DD
:1025F000074AD36823F4E0631B041B0C000200F4B9
:10260000E060034343F0BF6343F40033D36070479B
:1026100000ED00E030B4174BDB68C3F30223C3F1D5
:102620000704042C28BF04241D1D062D18D9033BC4
:102630004FF0FF3505FA04F421EA0401994005FA48
:1026400003F322EA0303194300280BDB0901C9B293
:1026500000F1604000F5614080F8001330BC704725
:102660000023E5E700F00F000901C9B2024B19543D
:10267000F4E700BF00ED00E014ED00E0002807DB08
:1026800000F01F02400901239340024A42F8203023
:10269000704700BF00E100E00138B0F1807F0AD24E
:1026A000064B5860064AF02182F8231000209860FB
:1026B00007221A6070470120704700BF10E000E059
:1026C00000ED00E070B50446866DFFF7B1FB94F8AD
:1026D0003530DBB2022B06D080236365002384F8FB
:1026E0003430012070BD05462268136823F01603BC
:1026F00013602268536923F080035361236CE3B1B4
:102700002268136823F0080313602268136823F01B
:102710000103136023681B6813F0010F11D0FFF74A
:1027200087FB431B052BF5D920236365032084F821
:102730003500002384F83430D4E7A36C002BDFD1BC
:10274000E3E7E26D3F239340B360012384F8353023
:10275000002084F83400C5E790F83530DBB2022B56
:1027600003D08023436501207047052380F835306E
:102770000268136823F00103136000207047000013
:1027800000230F2B00F2DD80F0B482B05DE086689C
:102790005F000324BC4026EA0406CC68BC403443F6
:1027A0008460466826EA02064C68C4F300129A4028
:1027B0003243426057E0DC08083450F8247003F0DC
:1027C000070296000F22B24027EA02070A69B240C8
:1027D0003A4340F824205AE0072200E00022B240A9
:1027E0003A430234574E46F82420574A9468EA4345
:1027F00024EA05064F6817F4801F01D045EA040655
:10280000514CA660E46802EA04064F6817F4001F02
:1028100001D045EA04064C4CE660646802EA04060E
:102820004F6817F4003F01D045EA0406464C666045
:10283000246822404E6816F4803F01D045EA040225
:10284000414C226001330F2B78D801229A400C684A
:1028500004EA020532EA0404F4D14C6804F00304EB
:10286000013C012C93D94A6802F00302032A09D0E3
:10287000C4685E000322B24024EA02048A68B240BF
:102880002243C2604A6802F00302022A93D004681D
:102890005E000322B24024EA02044A6802F0030206
:1028A000B240224302604A6812F4403FCAD000227C
:1028B0000192264A546C44F480445464526C02F4ED
:1028C00080420192019A9C08A61C1E4A52F826706A
:1028D00003F0030296000F22B24027EA02071C4AC7
:1028E00090423FF47BAF02F5806290421AD002F52D
:1028F0008062904218D002F58062904216D002F5B4
:102900008062904214D002F58062904212D002F5AB
:102910008062904210D002F5806290423FF45CAF3A
:1029200008225CE701225AE7022258E7032256E711
:10293000042254E7052252E7062250E702B0F0BC19
:102940007047704700380140003C014000380240A9
:1029500000000240002800F0DF8170B582B004461C
:10296000036813F0010F3BD0A64B9B6803F00C03E8
:10297000042B2CD0A34B9B6803F00C03082B21D015
:102980006368B3F5803F4FD0B3F5A02F52D09D4B75
:102990001A6822F480321A601A6822F480221A60BF
:1029A0006368002B50D0FFF743FA0546954B1B6830
:1029B00013F4003F14D1FFF73BFA401B6428F5D90C
:1029C0000320B0E18F4B5B6813F4800FD8D08D4BA0
:1029D0001B6813F4003F03D06368002B00F09E8156
:1029E000236813F0020F54D0864B9B6813F00C0F32
:1029F0003ED0844B9B6803F00C03082B33D0E36874
:102A0000002B67D0804B01221A60FFF711FA0546B0
:102A10007C4B1B6813F0020F53D1FFF709FA401BE0
:102A20000228F5D903207EE1764A136843F4803307
:102A30001360B5E7734B1A6842F480221A601A6873
:102A400042F480321A60ABE7FFF7F2F905466D4BAE
:102A50001B6813F4003FC3D0FFF7EAF9401B64285A
:102A6000F5D903205FE1674B5B6813F4800FC6D193
:102A7000644B1B6813F0020F03D0E368012B40F096
:102A80004F81604A136823F0F803216943EAC103C8
:102A90001360236813F0080F40D0636963B35B4B86
:102AA00001221A60FFF7C4F90546564B5B6F13F01D
:102AB000020F33D1FFF7BCF9401B0228F5D90320E0
:102AC00031E1504A136823F0F803216943EAC10356
:102AD0001360DEE74C4B00221A60FFF7A9F90546A8
:102AE000484B1B6813F0020FD3D0FFF7A1F9401B2E
:102AF0000228F5D9032016E1444B00221A60FFF7A3
:102B000097F905463F4B5B6F13F0020F06D0FFF7B6
:102B10008FF9401B0228F5D9032004E1236813F044
:102B2000040F78D0374B1B6C13F0805F0DD100235E
:102B30000193344B1A6C42F080521A641B6C03F000
:102B400080530193019B012500E00025304B1B6859
:102B500013F4807F21D0A368012B32D0052B36D00F
:102B6000284B1A6F22F001021A671A6F22F0040232
:102B70001A67A368002B34D0FFF75AF90646214B99
:102B80001B6F13F0020F45D1FFF752F9801B41F282
:102B900088339842F3D90320C5E01D4A136843F4F3
:102BA00080731360FFF744F90646194B1B6813F452
:102BB000807FD0D1FFF73CF9801B0228F5D9032094
:102BC000B1E0104A136F43F001031367D1E70D4BD7
:102BD0001A6F42F004021A671A6F42F001021A6774
:102BE000C7E7FFF725F90646064B1B6F13F0020FE8
:102BF00010D0FFF71DF9801B41F288339842F3D9BA
:102C0000032090E00038024000004742800E474217
:102C100000700040EDB9A369002B00F08380494AA1
:102C2000926802F00C02082A51D0022B17D0464BB2
:102C300000221A60FFF7FCF80446424B1B6813F0B1
:102C4000007F42D0FFF7F4F8001B0228F5D90320DB
:102C500069E03C4A136C23F080531364DBE73A4B82
:102C600000221A60FFF7E4F80546364B1B6813F0A4
:102C7000007F06D0FFF7DCF8401B0228F5D90320BF
:102C800051E0E369226A1343626A43EA8213A26A4B
:102C90005208013A43EA0243E26A43EA0263294ADC
:102CA0005360294B01221A60FFF7C2F80446254BF6
:102CB0001B6813F0007F06D1FFF7BAF8001B02284B
:102CC000F5D903202FE000202DE000202BE0012B80
:102CD0002BD01C4B5B6803F48001E269914226D142
:102CE00003F03F02216A8A4223D1616A47F6C0722B
:102CF0001A40B2EB811F1ED103F44031A26A520880
:102D0000013AB1EB024F18D103F07063E26AB3EB02
:102D1000026F14D1002006E001207047012002E07C
:102D2000012000E0002002B070BD0120FBE701207F
:102D3000F9E70120F7E70120F5E70120F3E701209B
:102D4000F1E700BF0038024060004742F8B5244B6D
:102D50009B6803F00C03042B3DD0082B3DD1204B86
:102D60005A6802F03F025B6813F4800F12D01C4BCC
:102D70005968C1F3881100231A48A1FB0001FEF72E
:102D80001BF9174B5B68C3F3014301335B00B0FBD6
:102D9000F3F023E0124B5B68C3F388135C0100255A
:102DA000E41A65F10005AE0146EA9466A701381BF6
:102DB00066EB0501CC0044EA5074C500E81844F104
:102DC00000018B0243EA90538402204619460023F7
:102DD000FEF7F2F8D5E7034800E00348F8BD00BF6E
:102DE00000380240001BB7000024F400002800F067
:102DF0009B8070B50D4604464F4B1B6803F00703DC
:102E00008B4208D2CBB24C4A1370136803F007030D
:102E10008B4240F08B80236813F0020F17D013F021
:102E2000040F04D0454A936843F4E0539360236849
:102E300013F0080F04D0414A936843F46043936051
:102E40003E4A936823F0F003A1680B439360236824
:102E500013F0010F32D06368012B21D09A1E012A92
:102E600025D9364A126812F0020F61D033498A68B8
:102E700022F0030213438B60FEF7DAFF06462F4B66
:102E80009B6803F00C036268B3EB820F16D0FEF769
:102E9000CFFF801B41F288339842F0D9032042E0F3
:102EA000264A126812F4003FE0D101203BE0234A99
:102EB000126812F0007FD9D1012034E01E4B1B684C
:102EC00003F00703AB4207D9EAB21B4B1A701B6829
:102ED00003F00703AB422DD1236813F0040F06D093
:102EE000164A936823F4E053E1680B439360236828
:102EF00013F0080F07D0114A936823F46043216947
:102F000043EAC1039360FFF721FF0C4B9B68C3F3B7
:102F100003130B4AD35CD8400A4B18600A4B18685D
:102F2000FEF73AFF002070BD012070470120FAE74C
:102F30000120F8E70120F6E7003C0240003802409B
:102F4000347F00080C00002014000020014B18689A
:102F5000704700BF0C00002008B5FFF7F7FF044BD7
:102F60009B68C3F38223034AD35CD84008BD00BFEB
:102F700000380240447F000808B5FFF7E7FF044B24
:102F80009B68C3F34233034AD35CD84008BD00BFFB
:102F900000380240447F0008026802F10C0353E845
:102FA000003F23F490730C3242E800310029F3D142
:102FB000026802F1140353E8003F23F001031432C6
:102FC00042E800310029F3D1036B012B05D0202307
:102FD00080F83E30002303637047026802F10C035F
:102FE00053E8003F23F010030C3242E8003100297F
:102FF000F3D1ECE790F83D30DBB2212B01D0022079
:1030000070478368B3F5805F17D0036A5A1C026269
:103010001A7803685A60C38C9BB2013B9BB2C3848D
:103020004BB90268D36823F08003D3600268D36889
:1030300043F04003D360002070470369002BE4D1C4
:10304000036A1B880268C3F308035360036A0233F0
:103050000362E0E770B504460268136923F4405345
:10306000C1680B43136183680269134342691343C8
:10307000C2691A430168CB6823F4164323F00C039A
:103080001343CB600268536923F4407381690B4397
:1030900053610368344A934206D002F5806293423A
:1030A00002D0FFF759FF01E0FFF766FFE369B3F5D0
:1030B000004F2AD00026051846EB06012D1846EBD6
:1030C0000101CB0043EA5573EA00154619466368CF
:1030D0009A009B0F281846EB0101FDF76DFF234D69
:1030E000A5FB00325109642303FB11031B0132339A
:1030F000A5FB03235B0903F0F00202EB011203F0CE
:103100000F03216813448B6070BD0026051846EB41
:1031100006012D1846EB0101CB0043EA5573EA0086
:103120001546194662683346921846EB0303281881
:1031300046EB0101FDF740FF0C4DA5FB00325109A4
:10314000642303FB1103DB003233A5FB03235B097C
:103150005A0002F4F87202EB011203F0070321682F
:1031600013448B60D0E700BF001001401F85EB5176
:103170002DE9F84305460F4616469946DDF82080AE
:103180002C68246837EA04030CBF01240024B442ED
:103190002DD1B8F1FF3FF3D0B8F1000F05D0FEF705
:1031A00047FEA0EB09004045EAD92A6802F10C036A
:1031B00053E8003F23F4D0730C3242E80031002979
:1031C000F3D12A6802F1140353E8003F23F001030E
:1031D000143242E800310029F3D1202385F83D3034
:1031E00085F83E30002385F83C30032000E00020C5
:1031F000BDE8F88358B310B5044690F83D300BB3E2
:10320000242384F83D302268D36823F40053D3602C
:103210002046FFF71FFF2268136923F490431361D0
:103220002268536923F02A0353612268D36843F468
:103230000053D36000202064202384F83D3084F8BC
:103240003E3010BD80F83C30FEF7CCFBD8E70120C3
:1032500070472DE9F04182B01E4690F83D30DBB258
:10326000202B54D104460D469046002953D0002A05
:1032700053D090F83C30012B51D0012380F83C30E2
:1032800000230364212380F83D30FEF7D1FD07467B
:10329000A4F82480A4F82680A368B3F5805F05D045
:1032A0004FF00008002384F83C3012E0236913B18A
:1032B0004FF00008F6E7A8460025F3E738F8023B90
:1032C0002268C3F308035360E28C92B2013A92B2CF
:1032D000E284E38C9BB273B100963B4600228021CE
:1032E0002046FFF745FFE0B9002DE7D015F8012B88
:1032F00023685A60E8E700963B46002240212046BA
:10330000FFF736FF78B9202384F83D3000E0022033
:1033100002B0BDE8F0810120FAE70120F8E70220C1
:10332000F6E70320F4E70320F2E7704708B50168E9
:10333000CA6822F04002CA60202280F83D20FFF7D0
:10334000F4FF002008BD704708B5806B0023C385DB
:10335000C384FFF7F8FF08BD704790F83E30DBB23A
:10336000222B67D18368B3F5805F4DD0826AB3F5B5
:10337000805F04D0002B54D10369002B51D1036826
:103380005B681370836A01338362C38D9BB2013B18
:103390009BB2C385002B4FD100B583B00268D368C0
:1033A00023F02003D3600268D36823F48073D360D2
:1033B0000268536923F001035361202380F83E30F3
:1033C000036B012B33D100230363026802F10C036A
:1033D00053E8003F23F010030C3242E8003100298B
:1033E000F3D103681A6812F0100F06D00022019280
:1033F0001A6801925B680193019B818DFFF7ACFF16
:10340000002003B05DF804FB0269002AAED1826A95
:1034100003685B68C3F308031380836A0233836223
:10342000B3E703685B6803F07F031370AAE7FEF756
:1034300051FCE5E7022070470020704730B583B0AB
:10344000044602681368D068516913F00F0505D16E
:1034500013F0200F02D010F0200F19D12DB111F070
:10346000010119D110F4907F16D1216B01297DD073
:1034700013F0800F03D010F0800F40F0158113F08F
:10348000400F03D010F0400F40F0128103B030BD68
:103490002046FFF762FFF9E713F0010F06D010F4A2
:1034A000807F03D0226C42F00102226413F0040FEB
:1034B00004D019B1226C42F00202226413F0020F10
:1034C00004D019B1226C42F00402226413F0080FF8
:1034D00007D010F0200F00D119B1226C42F0080281
:1034E0002264226C002AD1D013F0200F02D010F0F9
:1034F000200F29D123685B6903F04003226C12F08E
:10350000080F00D163B32046FFF746FD23685B69CF
:1035100013F0400F20D0226802F1140353E8003F5B
:1035200023F04003143242E800310029F3D1A36BA9
:1035300073B1614A1A65A06BFFF70EF90028A5D098
:10354000A06B036D9847A1E72046FFF706FFD1E780
:103550002046FFF7F8FE99E72046FFF7F4FE95E7CF
:103560002046FFF7F0FE002323648FE713F0100FCF
:103570003FF47EAF10F0100F3FF47AAF00230193B9
:103580001368019353680193019B536913F0400F33
:1035900050D0A26B13685B689BB2002B3FF476AFF0
:1035A000A18D99427FF672AFE385D369B3F5807F31
:1035B00037D0226802F10C0353E8003F23F48073F4
:1035C0000C3242E800310029F3D1226802F11403E1
:1035D00053E8003F23F00103143242E80031002990
:1035E000F3D1226802F1140353E8003F23F04003B3
:1035F000143242E800310029F3D1202384F83E3010
:1036000000232363226802F10C0353E8003F23F0F8
:1036100010030C3242E800310029F3D1A06BFFF710
:1036200051F8A18DE38D9BB2C91A89B22046FFF7EC
:1036300093FE2BE7A18DE38D9BB2C91A89B2E38D6E
:103640009BB2002B3FF422AF00293FF41FAF22684A
:1036500002F10C0353E8003F23F490730C3242E86C
:1036600000300028F3D1226802F1140353E8003F30
:1036700023F00103143242E800300028F3D1202364
:1036800084F83E3000232363226802F10C0353E8E0
:10369000003F23F010030C3242E800300028F3D141
:1036A0002046FFF759FEF1E62046FFF7A3FCEDE6C2
:1036B0002046FFF73BFEE9E6493300088162828538
:1036C000C28500230364222280F83E2080F83C302B
:1036D000036923B10268D36843F48073D36002683E
:1036E000536943F0010353610268D36843F0200338
:1036F000D3600020704708B590F83E30DBB2202B35
:103700000DD171B17AB190F83C30012B0DD001236D
:1037100080F83C3000230363FFF7D0FF00E0022075
:1037200008BD0120FCE70120FAE70220F8E770B5A8
:10373000044615461E460170BDF81400FDF748FB0F
:103740006064049B23643046FDF742FBE063284637
:10375000FDF73EFBA063BDF91800FDF73DFBA0643B
:10376000BDF91C00FDF738FB6060089BE360099B16
:1037700023610A9B63610023236370BDC1607047AE
:103780000161704741617047416070472DE9F8431E
:1037900004460D46C36C0365FEF74AFBE064236DE7
:1037A000C01A84F85400A561E7692762236B63633C
:1037B00029466068FDF75AFA0546E0610021FDF7E9
:1037C000CBFB002849D02946206CFDF7A7FB002839
:1037D00040D0E1682846FCF713FD8046606221690D
:1037E0002846FCF70DFDA16AFDF742FA0646A062E5
:1037F000D4F8149039462846FDF738FA0146484671
:10380000FCF7FEFC0746E062E56B29463046FDF713
:10381000A3FB00B1A56205F100452946A06AFDF7AA
:103820007DFB00B1A562A16A4046FDF721FA014681
:103830003846FDF71DFA2063A56B2946FDF78CFB82
:1038400000B1256305F100452946206BFDF766FBB5
:1038500000B12563206BBDE8F88305F10041B3E7B3
:10386000064B8365064BC365064B0366064B4366F2
:10387000064B8366064BC366704700BF2F370008B0
:103880007D37000881370008853700088937000830
:103890008D3700082DE9F04788B08246894690466A
:1038A0001F46002526E0C5EBC503374C04EB031487
:1038B0002046FFF7D5FFA66D344B1B680693344BAB
:1038C0001B680593334B1B680493334B1868FDF753
:1038D0004DFB00B203904FF4FA530293002301937F
:1038E0002E4B009341F2883343F6FF7201212046AC
:1038F000B0470135032DD6DD294BC3F800A0C3F82E
:103900000490C3F80880DF60002418E0E600C4EBF0
:10391000C4031D4D05EB0315214B53F82400FDF79F
:103920005BFA6860EF6E361B1E4B03EB8603B3F940
:103930000800FDF751FA01462846B8470134032C28
:10394000E4DD114B1F6BD3F8A040D3F81051D3F82E
:103950008001FDF70BFB06B22846FDF707FB05B219
:103960002046FDF703FB04B23846FDF7FFFA334665
:103970002A46214600B200F049F90A20FEF75EFA15
:1039800008B0BDE8F08700BF580C00200000002000
:10399000380A002004000020080000200000204118
:1039A000180E0020480E002010B58AB0012208929F
:1039B00000230693079200930193029303930593C8
:1039C00004930E4C69462046FEF7F2FA2046FEF7B5
:1039D00087FB02212046FEF7C7FC0E2309930593BF
:1039E000074C69462046FEF7E3FA2046FEF778FBCF
:1039F00002212046FEF7B8FC0AB010BDE8090020FD
:103A0000100A002070B58AB0044601AB03AA002159
:103A1000FEF70AFC764B9C4204D0764B9C4274D055
:103A20000AB070BD039CA4F20123032BF8D8013C1B
:103A3000E4B29DF804209DF8053043EA022318B251
:103A4000C4EBC4016C4A22F821306C4B1B6843B1B3
:103A50000A46694901EB8202D0811082013B674A24
:103A600013609DF806301B021BB29DF8072013431C
:103A70006149C4EBC40001EB800213819DF808305A
:103A80001B021BB29DF809502B4353819DF80A304D
:103A9000137331F82030B2F90E209B1AB3F5805F12
:103AA00027DD01EB80035A69013A5A61524DE60065
:103AB000C4EBC40205EB820335F92210D9815969A0
:103AC00035F82200B3F91020801A00EB41309861DC
:103AD000FCF79CFD00224A4BFCF702FE0022494BFA
:103AE000FCF7FEFD341B05EB8405FDF793F86860D9
:103AF00096E713F5805FD9DAC4EBC4033E4A02EBC4
:103B000083035A6901325A61D0E7039CA4F201236E
:103B1000032B85D8013CE4B29DF804209DF80530C4
:103B200043EA022318B2C4EBC401374A22F8213019
:103B3000324B1B6843B10A46334901EB8202D08104
:103B40001082013B2D4A13609DF806301B021BB208
:103B50009DF8072013432C49C4EBC40001EB8002FD
:103B600013819DF808301B021BB29DF809502B43AE
:103B700053819DF80A30137331F82030B2F90E20CA
:103B80009B1AB3F5805F27DD01EB80035A69013A88
:103B90005A611D4DE600C4EBC40205EB820335F902
:103BA0002210D981596935F82200B3F91020801A02
:103BB00000EB41309861FCF729FD0022104BFCF727
:103BC0008FFD00220F4BFCF78BFD341B05EB8405AA
:103BD000FDF720F8686023E713F5805FD9DAC4EBBE
:103BE000C403094A02EB83035A6901325A61D0E7E0
:103BF000E8090020100A0020480E002018000020CC
:103C0000000024400000203F980F002070B582B0D3
:103C10000D4614460D494FF400720A6000228A6076
:103C2000CA6008220A610A4A0612167050702812E9
:103C30009070D57020121071547118129071D37158
:103C400001AB0448FEF77AFA02B070BD300E0020D6
:103C5000280E0020E8090020014B1868704700BFBB
:103C60001C00002070B50D4E0D4D761BB61006D011
:103C7000002455F8043B01349847A642F9D1094E77
:103C8000094D761B04F040F9B61006D0002455F813
:103C9000043B01349847A642F9D170BDE081000889
:103CA000E0810008E8810008E0810008F0B48607A0
:103CB00046D0541E002A3CD0CAB2034601E0013C63
:103CC00037D303F8012B9D07F9D1032C2AD9CDB2A4
:103CD00045EA05250F2C45EA054534D9A4F1100223
:103CE00022F00F0C03F120071609674403F11002BC
:103CF00042E9045542E902551032BA42F8D1721C29
:103D000014F00C0F03EB021204F00F0613D0331F54
:103D100023F003030433134442F8045B9342FBD1C2
:103D200006F003042CB1CAB21C4403F8012B9C42D8
:103D3000FBD1F0BC704734461346002CF3D1F8E7B2
:103D400014460346C1E71A462646E0E730B59BB065
:103D5000074D00916FF0004404916946CDE902459A
:103D6000059400F03DF8009B00221A701BB030BD96
:103D70000802FFFF30B4044C0D46134601462A46A4
:103D8000206830BCFFF7E2BF1C000020024B13B1DB
:103D9000024800F005B8704700000000AD3D000883
:103DA000002301461A46184601F080BD38B5084B7D
:103DB000084D5B1B9C1007D0043B1D44013C55F88B
:103DC00004399847002CF9D1BDE8384004F0A2B876
:103DD000EC810008E8810008704700BF704700BF11
:103DE0002DE9F04FD5B08B4617460D93814602F072
:103DF000E3FE036816931846FDF762FBBBF80C3030
:103E000015901E0604D5DBF81030002B00F0F98762
:103E10000023CDE92933CDE91833CDE91A331193C5
:103E2000179308932BAB289398463B78CDF82CB08A
:103E300000210022CDE91212002B00F052813C46F5
:103E400004E014F8013F002B00F0A880252BF8D1E6
:103E5000E51B40F0A6802378002B00F04281002370
:103E600009938DF883300693661C4FF0FF33647816
:103E700007932B254FF0200A0136A4F120035A2B7B
:103E800000F2AD80DFE813F08602AB00AB008002E9
:103E9000AB00AB00AB006A00AB00AB00E401F50186
:103EA000AB00EF019502AB008F025B005B005B0093
:103EB0005B005B005B005B005B005B00AB00AB008A
:103EC000AB00AB00AB00AB00AB004001AB00870127
:103ED000B802400140014001AB00AB00AB00AB00B9
:103EE0007A02AB00AB00F901AB00AB00AB0095016F
:103EF000AB006A02AB00AB009E07AB00AB00AB00AF
:103F0000AB00AB00AB00AB00AB004001AB008701E6
:103F1000BB014001400140012C02BB018400AB0009
:103F20004D02AB003502970756028400AB009501A5
:103F300082009A07AB00AB007507AB008200A4F1CA
:103F40003003002216F8014B02EB820203EB42021F
:103F5000A4F13003092BF5D909928EE7484602F007
:103F60002BFE43681A931846FDF7AAFA0346484603
:103F70001C461B9302F020FE8268189234B1189BF5
:103F800023B1189B1B78002B41F06D81347873E7C7
:103F9000069B347843F0200306936DE7E51B00F0A1
:103FA000A080DDE9293201332A44072BCDE92932EB
:103FB000C8F80070C8F8045006DC08F10808089A30
:103FC00023782A44089247E70B9928AA484603F029
:103FD0006FFC002841F0BD830DF1AC08EFE70E96B1
:103FE000002C7ED000231A464FF0010A8DF8EC40D9
:103FF0008DF883300C9207920F9214921092CDF8A4
:1040000028A03BAF069B069913F0020318BF0AF1E4
:10401000020A11F0840B05D10999A1EB0A06002EC2
:1040200000F3AD832A9D72B1299A013201350DF159
:1040300083000121072ACDE92925C8E9000100F301
:10404000DE8308F108086BB1299B0133023521A9F1
:104050000222072BCDE92935C8E9001200F3DD83E0
:1040600008F10808BBF1800F00F09482079B0A9AC0
:104070009E1A002E00F3D382069BDE0500F12E82ED
:10408000299B0A9AC8F8007001331544072B2A951A
:10409000C8F80420299300F3528308F10808069B0E
:1040A000580705D5099BA3EB0A04002C00F3C8832D
:1040B000DDE908325245ACBF9B1853440893002DEC
:1040C00040F0E682002329930C9B1BB10C994846D3
:1040D00002F06EFC0DF1AC080E9F3B78002B7FF4D4
:1040E000AEAE2A9BDDF82CB0002B41F08482BBF8E9
:1040F0000C3013F0400F089B18BF4FF0FF330893AC
:10410000089855B0BDE8F08F0D9B0E96073323F04D
:1041100007031946F1E80223CDE91223DDE912ABCA
:104120002BF000450D91B04B504629464FF0FF3221
:10413000FDF734FA002840F0F384AB4B5046294693
:104140004FF0FF32FCF748FD002840F0E9840022E0
:10415000002350465946FCF735FD002841F05F80AA
:104160009DF88320A14FA24B069800214FF0030A2F
:1041700020F080000C910690472CC8BF1F46CDF858
:1041800028A007910F9114911091002A3FF43AAFA3
:104190000AF1010A36E70D9B0E9653F8042B8DF8B1
:1041A000EC2000210A464FF0010A0D938DF8831090
:1041B00020E70D9D0E9655F8047B00268DF8836050
:1041C000002F00F02E86079A1346013300F0E08797
:1041D00031463846FDF76CF80C90002801F02C8130
:1041E0000C9B0796DA1B0A92334622EAE27A0D9577
:1041F0009DF883200C930F9314931093C5E7069BAF
:104200000E969D0640F101810D9B073323F00703B5
:104210001946F1E802230D9192469B46002A73F15C
:104220000003C0F20381079B013300F05C85069B0D
:1042300023F080055AEA0B0340F09082079B002B85
:1042400040F093820695002307930A9354AF18E138
:104250000D9B53F8042B0992002A80F24584099A99
:104260000D9352420992069B347843F0040306935F
:1042700002E634788DF88350FEE5069B0E9643F0F7
:1042800010030693069B990640F1FE830D9B0733AE
:1042900023F00703F3E802AB0D93069B23F480653C
:1042A000002300228DF88320079A1146013100F087
:1042B000CD8025F0800106915AEA0B0140F04A8238
:1042C000002A40F01087002BBDD115F001030A939E
:1042D00000F00E8430238DF84F310DF24F17D0E0EF
:1042E0003478069B682C00F0858543F040030693E4
:1042F000C2E5069B0E969E0600F1E984069BDD064C
:1043000000F1F786069B5C0600F1BE87069B9805C8
:1043100040F1EF860D9B089953F8042B0D93117013
:10432000DAE63478069B6C2C00F05D8543F01003D0
:104330000693A1E50D9B0E9647F6300153F8042B2A
:10434000ADF8841006990D932A4B179341F002059E
:1043500092464FF0000B02237824A2E7069B0E96AC
:1043600043F01005AF0640F180830D9B073323F027
:104370000703F3E802AB0D93012392E7069B347821
:1043800043F00803069377E5069B347843F0010376
:10439000069371E59DF88330002B7FF4F7AD3478F8
:1043A0008DF883A068E5069B347843F0800306937C
:1043B00062E5324612F8014B2A2C01F05182A4F139
:1043C0003003092B164698BF002201F21D8116F812
:1043D000014B02EB820203EB4202A4F13003092BF2
:1043E000F5D9079249E500BFFFFFEF7F507F000836
:1043F000547F0008607F0008069B0E9643F0100370
:104400000693069B9D063FF5FFAE069BD80640F13E
:104410004E840D9B53F8042B0D934FEAE27B5B46D1
:10442000002A73F100039246BFF6FDAE079A069D7F
:10443000DAF1000A11464FF02D036BEB4B0B013103
:104440008DF883304FF001037FF433AF012B00F080
:104450008581022B54AF22D117984FEA1A130AF024
:104460000F0143EA0B734FEA1B129A469346435CD3
:1044700007F8013D5AEA0B03EFD154ABDB1B06955D
:104480000A93002307990C930F93149310930A9B9C
:104490009DF883208B42B8BF0B469A4675E64FEADB
:1044A000DA0242EA4B724FEADB010AF007038B465D
:1044B000924630335AEA0B013A4607F8013DEED1F5
:1044C000E907DAD5302BD8D03023023A07F8013C7F
:1044D00054AB9B1A06950A931746D2E7652C40F316
:1044E000EA80DDE9120100220023FCF761FB0028CD
:1044F00000F0E081299BCF4AC8F800200133013544
:104500000122072BCDE92935C8F8042000F3B48532
:1045100008F10808229B119A934280F2E082299BBD
:10452000169AC8F80020159AC8F8042001331544DB
:10453000072B2A95299300F3498408F10808119B59
:104540005C1E002C7FF7ABAD102C299BDFF8ECB282
:1045500040F3A3855F461026DDF82CB005E008F196
:104560000808103C102C40F3978501331035072BB9
:10457000CDE92935C8E90076F1DD28AA5946484633
:1045800003F096F9002840F08D80DDE929350DF122
:10459000AC08E6E7099BA3EB0A06002E7FF766ADA1
:1045A000102E299ADFF894B226DD294610232546DD
:1045B0005C46DDF82CB004E0103E102E08F108082F
:1045C00017DD01321031072ACDE92921C8E900435E
:1045D000F2DD28AA5946484603F06AF9002861D15D
:1045E000103E102EDDE929210DF1AC084FF010032B
:1045F000E7DCA3462C460D4601323544072ACDE9B7
:104600002925C8F800B0C8F8046000F35F85079B4F
:104610000A9A9E1A002E08F108087FF72DAD102E79
:10462000299ADFF818B225DD2946102325465C4675
:10463000DDF82CB004E0103E102E08F1080816DD5D
:1046400001321031072ACDE92921C8E90043F2DD02
:1046500028AA5946484603F02BF918BB103E102EE5
:10466000DDE929210DF1AC084FF01003E8DCA34689
:104670002C460D4601323544072ACDE92925C8F8D4
:1046800000B0C8F8046000F3E38108F10808F3E41F
:104690000B9928AA484603F00BF900283FF412AD05
:1046A000DDF82CB00C9B002B3FF421AD0C99484653
:1046B00002F07EF91BE5119B299C012B40F38081C0
:1046C000013401350123072CCDE92945C8F80070D4
:1046D000C8F8043000F3E98108F10808159B169A20
:1046E00001341D44072CCDE92945C8E9002300F316
:1046F000E98108F108080023DDE912010022FCF736
:1047000057FA119B002840F07881013B01340137B2
:104710001D44072CCDE92945C8F80070C8F80430BD
:1047200000F35E8108F10808199A0134154424AB9E
:10473000072CCDE92945C8E900327FF7AEAC0B99CB
:1047400028AA484603F0B4F80028A9D12A9D0DF103
:10475000AC08A4E4012B069D7FF47BAEBBF1000FF7
:1047600008BFBAF10A0F80F0C6820AF1300A0123AD
:104770008DF84FA106950A930DF24F1781E6102E82
:10478000DDE929212ADD1C933B4640464F46A046E1
:1047900010250B9C994604E0103E102E00F10800F5
:1047A00016DD0132244B1031072ACDE92921C0E959
:1047B0000035F1DD28AA2146384603F079F80028B3
:1047C00040F03D84103E102EDDE929212BA8E8DCC5
:1047D00044461C9B80464846B94607460132164867
:1047E000C8F800008D19072ACDE92925C8F804600A
:1047F00000F3DE839DF8832008F1080813E40B9989
:104800001C9328AA484603F053F800287FF448AFC9
:104810002A9D1C9B0DF1AC0815E40B9928AA48466B
:1048200003F046F800287FF43BAF2A9D0DF1AC0859
:1048300018E400BF907F0008947F0008A47F000860
:10484000102C299B1FDD0B9F102604E0103C102C20
:1048500008F1080817DD0133AF4A1035072BCDE901
:104860002935C8E90026F1DD28AA3946484603F073
:104870001FF8002840F00D84103C102CDDE929358C
:104880000DF1AC08E7DC0133A34AC8F80020254449
:10489000072BCDE92935C8F804407FF709AC0B99FF
:1048A00028AA484603F004F800287FF4F9AE2A9DB0
:1048B000FFF7FEBB229A002A40F38B83DDE910321A
:1048C0009342A8BF1346002B1C460DDD299BC8F858
:1048D000007001332544072B2A95C8F8044029931A
:1048E00000F3468508F10808109B002CA8BF1B1B8D
:1048F000002B1C4600F3A582109B3B449B46069B65
:10490000590500F1C582229B119A934203DB069A56
:10491000D20740F1AF84299A1699C8F8001015996A
:10492000C8F8041001320D44072A2A95299200F391
:10493000398508F10808119ABC18A4EB0B04D31AA6
:104940009C42A8BF1C46002C0DDD299AC8F800B077
:1049500001322544072A2A95C8F80440299200F319
:104960003A8608F10808002CACBF1C1B1C46002C22
:104970007FF795AB102C299BDFF8A0B140F38D8316
:104980005F461026DDF82CB005E008F10808103C61
:10499000102C40F3818301331035072BCDE92935E5
:1049A000C8E90076F1DD28AA5946484602F080FFA2
:1049B00000287FF477AEDDE929350DF1AC08E6E794
:1049C000069BDE073FF57CAE013401350123072C41
:1049D000CDE92945C8F80070C8F804307FF7A2AEC9
:1049E0000B9928AA484602F063FF00287FF458AECE
:1049F000DDE929450DF1AC0896E65E1E002E7FF735
:104A000093AE102EDFF814B140F3B883CDF81CA09C
:104A10001027CA46DDF82C9005E008F10808103E82
:104A2000102E40F3A88301341035072CCDE9294519
:104A3000C8E900B7F1DD28AA4946504602F038FF20
:104A4000002840F0E585DDE929450DF1AC08E6E7F1
:104A50000B9928AA484602F02BFF00287FF420AECD
:104A60002A9D0DF1AC08FFF707BB0D9AEE0652F830
:104A7000041B0D924FF001033FD468063AD51FFA8C
:104A800081FA4FF0000B0CE4069BDA063AD4069B41
:104A90005B0640F194830D9B53F8042B0D931FFA92
:104AA00082FA4FF0000BFFF7F8BB0B9928AA484693
:104AB00002F0FEFE00287FF4F3ADDDE929450DF19B
:104AC000AC080BE60B9928AA484602F0F1FE002834
:104AD0007FF4E6ADDDE929450DF1AC080BE6069B58
:104AE000D8077FF5DCAA1AE534780D93FFF7C4B92F
:104AF00054AFC6E4AA0500F1CF838A464FF0000BFD
:104B0000FFF7CFBB0D9B53F8042B0D9392464FF04C
:104B1000000BFFF7C2BB00BF947F0008A47F000812
:104B2000DDE912010B460246FCF738FD014600287C
:104B300040F00286612C00F0B785412C00F0AA8479
:104B4000079B24F020065A1C0A9600F0C683472EC5
:104B500000F0AF85DDE91212069BB2F1000A43F4C2
:104B6000807310934FF00003C0F2C8851C930C9320
:104B70008B46462E5A46534600F03E84452E40F062
:104B80001F84079926A84D1C23A90490039122A8ED
:104B90000221019502900091484600F05DFF074612
:104BA0000544069B0F93109B0693584651460022DE
:104BB0000023FBF7FDFF002800F0CE832B46DB1B14
:104BC00011930A9B472B00F099830A9B462B00F018
:104BD0004084229B1093109B0A9A013B412A229306
:104BE00000F0A485E2B20021002BB8BF109B8DF825
:104BF0009020BABFC3F101032D222B22092B8DF87F
:104C0000912040F3AC850DF19F0EDFF868C4754626
:104C10008CFB0321DA17C2EBA10202EB8201A3EBAA
:104C200041011E463031632E284605F8011C13460B
:104C300005F1FF35ECDC3033DAB2831E9E452946A0
:104C400005F8012C40F22D860DF1920301E011F8D8
:104C5000012B03F8012B8E45F9D10DF1A1030DF1C4
:104C600092021B1A134424AA9B1A1993119B199A96
:104C7000012B1A440A9240F3D5850A9B159A1344D6
:104C80000A930F9B23F4806600230F9314931093D1
:104C90000A9B46F48072069223EAE37A1C9B002B5F
:104CA00040F053839DF883200793FFF76EBA069B6D
:104CB000590640F193820D9B53F8042B0D930FFA84
:104CC00082FA4FEAEA7B52465B46FFF7A7BA0D9B92
:104CD00053F8041B0D93089BDD171A462B46C1E9B8
:104CE0000023FFF7F9B9BBF1000F08BFBAF10A0FB3
:104CF000069DFFF43AAD05F4806600230694CDF8D6
:104D000028903446C14654AFA8461E46189D09E077
:104D1000FCF752F9BBF1000F08BFBAF10A0F1FD31D
:104D200082468B460A22002350465946FCF744F936
:104D300094460CF1300C07F801CC504659460A2233
:104D400000230136013F002CE2D095F800C06645F3
:104D5000DED1FF2EDCD09B4508BF924580F06482F7
:104D60001895069C11964546C846DDF82890FFF731
:104D700084BBBB4B0E961793069B9F0640F10281A6
:104D80000D9B073323F00703F3E802AB0D93069A5C
:104D9000D0070AD55AEA0B0307D0302342F00202AB
:104DA0008DF8854006928DF88430069B23F480654B
:104DB0000223FFF776BA0E96FFF764BA069D0E96A9
:104DC000FFF7D0BAA74B0E961793D5E70B9928AAF1
:104DD000484602F06DFD00287FF462AC2A9D0DF17B
:104DE000AC08FFF7ACBB43F02003747806930136A0
:104DF000FFF742B843F40073747806930136FFF767
:104E00003BB84021484601F0DBFECBF80000CBF870
:104E10001000002800F02F854023CBF81430FEF757
:104E2000F7BF079B0F97062B28BF062307971497FA
:104E300010970C973A469A468B4F0D950A93FFF7B9
:104E4000A4B9102C299BDFF824B240F3DA812A465A
:104E500010265D46DDF82CB005E008F10808103C8E
:104E6000102C40F3CC8101331032072BCDE92932CD
:104E7000C8E90056F1DD28AA5946484602F018FD57
:104E800000287FF40FACDDE929320DF1AC08E6E72C
:104E9000119BCDF828A04246DDF850801097FB18F2
:104EA00007935E46DDF86CA0DDF82CB0189F0F9BD1
:104EB0002946B8F1000F2FD0002B30D1013F08F167
:104EC000FF38299B1A98106001335144072B2A910F
:104ED000C2F804A0299360DC083207983B78841B51
:104EE0009C42A8BF1C46002C0BDD299B1660013399
:104EF0002144072B2A915460299300F3DB803B78EF
:104F00000832002CACBF1C1B1C46002C0BDC1E44C2
:104F10000F9BB8F1000FCFD1002B00F0E1810F9B68
:104F2000013B0F93CDE7102C29981DDD102504E0DF
:104F3000103C102C02F1080216DD01304B4B1031F1
:104F40000728CDE92901C2E90035F1DD28AA594633
:104F5000484602F0ADFC00287FF4A4AB103C102CB6
:104F6000DDE929012BAAE8DC0130404B1360214424
:104F70000728CDE92901546000F307823B78083205
:104F80001E44C5E7069BDE065DD50D9B53F8042B3A
:104F90000D9392464FF0000BF9E628AA5946484671
:104FA00002F086FC00287FF47DAB2A992BAA94E7B7
:104FB0000B991C9328AA484602F07AFC00287FF43B
:104FC0006FAB9DF883202A9D1C9B0DF1AC08FFF769
:104FD0002AB8299B2649C8F8001001330135012160
:104FE000072BCDE92935C8F8041000F32F8108F10B
:104FF0000808002A40F08580069B119A03F00103FF
:1050000013433FF44CA8299B169AC8F80020159A20
:10501000C8F8042001331544072B2A95299300F37F
:10502000418108F10808119A01331544072BCDE995
:105030002935C8E900727FF730A8FFF780BBB94671
:10504000A346FFF72FBB069B5D0640F1AA800D9B90
:1050500053F8042B0D931FFA82FA4FF0000B96E6DB
:10506000607F0008747F0008887F0008A47F000824
:10507000907F0008676666660B9928AA484602F08A
:1050800017FC00287FF40CAB2A9D0DF1AC08FFF74C
:1050900041BABB46FFF706BBBB4601332544072B8D
:1050A000C8F800B0CDE92935C8F804407EF7F5AF5F
:1050B000FFF745BB28AA5946484602F0F9FB0028ED
:1050C0007FF4F0AA3B782A992BAA1AE70B9928AA11
:1050D000484602F0EDFB00287FF4E2AA2A9D0DF17C
:1050E000AC08FEF7C3BF012B069D7FF4B2A9FFF702
:1050F0003CBB0D9B089953F8042B11600D93FEF7F0
:10510000EBBF299B1699C8F800101599C8F8041030
:1051100001330D44072B2A95299300F3C38008F12E
:105120000808002ABFF67FAF54421032DFF8C4B639
:1051300080F2A4822A4610265D46DDF82CB005E0F8
:1051400008F10808103C102C40F39682013310320D
:10515000072BCDE92932C8E90056F1DD28AA5946C6
:10516000484602F0A5FB00287FF49CAADDE929321D
:105170000DF1AC08E6E7D146DDF81CA0013435445A
:10518000072CCDE92945C8E900B67FF7CBAA27E46B
:105190003846FCF795F93346079602460A90FFF722
:1051A00024B8069B13F4007F0D9B53F8042B0D933A
:1051B00014BF5FFA82FA92464FF0000BE7E5069BB8
:1051C00013F4007F0D9B53F8042B0D9314BF5FFA6B
:1051D00082FA92464FF0000BFFF75FB8069B13F47C
:1051E000007F0D9B53F8042B3FF416A94FFA82FA67
:1051F0004FEAEA7B0D9352465B46FFF70FB8AB468A
:10520000154601332544072BCDE92935C8F800B0F0
:10521000C8F8044054DC08F10808FFF76DBB2D22E4
:105220008DF88320FEF79EBF1B9B1A99FF1A1A4622
:10523000384602F009FB6B7803B101350A220023DE
:10524000504659460026FBF7B7FE69E50B9928AA98
:10525000484602F02DFB00287FF422AA229A2A9DBC
:105260000DF1AC08C5E6069B347843F480630693E1
:10527000FEF702BE119ABC18A4EB0B04D31A9C4291
:10528000A8BF1C46FFF76FBB0D9B089953F8042B72
:105290000D931180FEF720BF5FFA81FA4FF0000BEB
:1052A000FEF7FFBF0B9928AA484602F001FB002831
:1052B0007FF4F6A9DDE92935229A0DF1AC0830E733
:1052C0000B9928AA484602F0F3FA00287FF4E8A9CF
:1052D0002A9D0DF1AC08FFF70FBB0623079339E4B5
:1052E0001897DDE91073FB189E42B346DDF828A03D
:1052F0000D46904628BF9B46FFF705BB229B1093A7
:10530000D81C02DB079A934204DD023C24F0200300
:105310000A9360E4DDE910318B42C0F2B1800F9A4C
:10532000D20740F12B82159A13440A930F9B5B0519
:1053300003D5109B002B00F32B820A9B672423EAE2
:10534000E37A00230F931493A8E42D2200238DF811
:1053500083200793FEF71CBF269BAB42BFF42FAC04
:1053600030215A1C26921970269B9D42F9D826E4BA
:105370000B9928AA484602F09BFA00287FF490A9CE
:105380002A9D0DF1AC08FFF7AFBA28AA5946484646
:1053900002F08EFA00287FF485A93B782A992BAA7F
:1053A0001E44B5E50B9928AA484602F081FA002868
:1053B0007FF476A9229B2A9D0DF1AC08FFF7BBBABA
:1053C00026A823A9079D0490039122A802210290F8
:1053D00001950091484600F03FFB472E074619D142
:1053E000069BDA0700F11881109A069247220F9364
:1053F0000A92269BFFF7E3BB26A823A9079D0490EA
:10540000039122A80321029001950091484600F0E3
:1054100023FB0746079B462E07EB03057FF4C1AB32
:105420003B78302B00F0F081229B069A0F921D44AE
:10543000109B0693FFF7B9BBDDF81CA09DF88320F5
:10544000CDF828A007900D950F9014901090FEF7BE
:105450009CBE229A0F9B1092002A40F3EC81079980
:1054600003F001030B4340F08C81109B0A936624E8
:105470000F9B590500F18D810A9B23EAE37A60E7CF
:10548000119B159A9A18109B0A92002B40F3B48135
:105490006724EDE730238DF8843058238DF885306C
:1054A000069B43F00205079B632B00F3DB80002380
:1054B0000C933BAFDDE91212069B069543F4817312
:1054C00024F02006B2F1000A10930A967BDB002339
:1054D0008B461C93612C00F01381412C7FF449AB67
:1054E0005846514622AA02F065F900224FF07F5338
:1054F000FBF7F6F80022002382468B46FBF758FBA9
:1055000008B101232293B54B0F93079B1D94CDE95E
:105510001E973E465D1E0F9FCDF8448003E0FBF7CB
:1055200047FB013D08BBAE4B002250465946FBF7F6
:10553000D7F889468046FBF76DFB0446FBF766F813
:1055400002460B4640464946FAF712FF17F804C0D8
:10555000B5F1FF3FB146824606F801CB8B464FF0CE
:1055600000024FF00003A846D9D19E4B14940022AC
:105570005046594645461F9FDDF84480CDF844907B
:10558000DDE91D49FBF73CFB00284FD1954B504608
:1055900059460022FBF70CFB10B1149BDB0745D4E6
:1055A000002D2B4606DB01333344302206F8012B55
:1055B000B342FBD1069B0F93F31B1193109B0693F1
:1055C000FFF7FFBA0C90DDE9122303F1004A2D2307
:1055D00093461C937EE70B9928AA484602F068F987
:1055E00000287FF45DA8229B119A2A9DD31A0DF101
:1055F000AC08FFF7B8B9484628AA594602F058F94E
:10560000BBF80C30FEF775BD00230793FEF735BCE1
:10561000CB46D146FFF746B8069B0F93079BFD1874
:10562000109B069347230A93FFF7BFBA119B26935B
:105630000F9B16F8012CD97B8A42334609D13020C2
:1056400003F8010C269B5A1E269213F8012C914256
:10565000F6D0392A0BBF0F9A0132927AD2B203F8F0
:10566000012CA7E7591C484601F0AAFA0746002872
:1056700000F00D810C901DE7AB4615460133254423
:10568000072BCDE92935C8E900B47FF7CAAC0B99DF
:1056900028AA484602F00CF900287FF401A8DDE9A9
:1056A00029350DF1AC08BEE430238DF88430782321
:1056B000F4E6002B08BF01230793069B43F4807395
:1056C0001093139BB3F1000AFFF67CAF079E01967F
:1056D00026AD23A8CDE90305DDE9125622AA02234F
:1056E000029200932A46334648468B461C9100F0AE
:1056F000B3F9CDF830B00746AB4671E60C9362E7DC
:105700005846514622AA02F055F800224FF07F5326
:10571000FAF7E6FF0022002382468B46FBF748FAA1
:1057200008B101232293304B0F93EEE604F10F02F0
:10573000D2B20121FFF758BA139B2C4F002BB4BFF4
:105740002D229DF883202A4BB8BF8DF88320FEF7C9
:105750000BBDDDF82CB0BBF80C30FEF7CABC00293D
:1057600066D130228DF892200DF19302303302F889
:10577000013B24ABD31A1993FFF778BA109B0A9315
:10578000D4E5159B02EB030A51440A9166246FE6A7
:10579000672418990B78FF2B75D00025109A28469E
:1057A00003E001300131FF2B08D0934206DAD21A10
:1057B0004B78002BF5D10B780135F4E71891109256
:1057C00014900F950F9A149B0A9913441B9A02FB8D
:1057D00003130A9323EAE37AFFF760BA747F0008A1
:1057E000000030400000E03F607F0008587F000864
:1057F0005C7F0008A47F0008C3F101031A440A92E9
:1058000022EAE27A67249CE55846514600220023AA
:10581000FBF7CEF900287FF407AE079BC3F1010325
:10582000229302E60F9BD9077FF52BAAFFF725BA33
:105830000DF192029AE703F00106079B56EA030274
:1058400005D14FF0010ACDF828A0662479E5159A14
:1058500002F1010A53440A9323EAE37A662470E5CD
:105860000D9B747853F8041B0D93164641EAE172C0
:105870000792FEF701BB0C23C9F800304FF0FF334D
:105880000893FEF73DBC00230F9314939AE7DDF8CD
:105890002CB0BBF80C3043F04003ABF80C30FEF7F3
:1058A00028BC02231993FFF7E1B900BF2DE9F047A7
:1058B000DFF880A00646DAF8000098460F469146C9
:1058C000FEF78AFA1A4B1B68D3F8484124B365687F
:1058D0001F2D26DC5EB9AB1C0135DAF800006560CF
:1058E00044F82370FEF77AFA0020BDE8F08704EB55
:1058F00085030121C3F88890D4F88821A9400A4380
:10590000022EC4F88821C3F80881E4D1D4F88C3180
:105910001943C4F88C11DEE703F5A674C3F84841B7
:10592000D5E7DAF80000FEF759FA4FF0FF30DCE770
:105930004C7F0008480400202DE9F04F03690E69F0
:10594000B34283B0C0F28280013E01F1140700F13E
:10595000140A57F826305AF8262001338346B0003F
:1059600000909A420AEB860007EB86090190B2FB91
:10597000F3F836D300252A46BC4650465CF8044B63
:1059800003681FFA84FE08FB0E554FEA154E240CDF
:1059900008FB04E4ADB2551BA2B2C2EB134215FAE8
:1059A00083F302EB23429BB243EA0243E14540F812
:1059B000043B4FEA14454FEA2242DFD2009B5AF8DB
:1059C000033073B9019B043B9A4504D307E09A4521
:1059D00006F1FF3603D253F80429002AF7D0CBF89A
:1059E0001060584601F0D8FD00282BDB08F10108B3
:1059F0005046002357F8041B04688AB29A1A0B0C0D
:105A000012FA84F2C3EB144303EB224392B242EA4C
:105A10000342B94540F8042B4FEA2343EAD25AF82F
:105A200026200AEB86036AB9043B9A4504D307E0B3
:105A30009A4506F1FF3603D253F80429002AF7D01D
:105A4000CBF81060404603B0BDE8F08F002003B0F3
:105A5000BDE8F08F000000002DE9F04F016C9BB015
:105A600016461F46CDE90267279D044641B1426CA8
:105A70004A60012393408B6001F08EFB0023236476
:105A8000B7F10009B4BF012300232B60764BBCBFE4
:105A900029F00049CDF80C9033EA090300F0AA8000
:105AA000DDE90223CDE90823104619460022002330
:105AB000FBF77EF8824670B1269A01231360289B7B
:105AC000002B00F0CB8269481860431E04930498B1
:105AD0001BB0BDE8F08F18AA19ABCDE90032204603
:105AE000DDE9082301F012FE5FEA1955804640F017
:105AF0009780DDE918B55D4405F23240202840F377
:105B00009D83C0F1400305F2124009FA03F926FA19
