:020000040800F2
:1000000000000220C1160008211300082313000875
:10001000251300082713000829130008000000001A
:100020000000000000000000000000002B1300088A
:100030002D130008000000002F13000831130008E2
:1000400011170008111700081117000811170008F0
:1000500011170008111700081117000811170008E0
:1000600011170008111700081117000811170008D0
:1000700011170008111700081117000811170008C0
:1000800011170008111700081117000811170008B0
:10009000391300081117000811170008111700087C
:1000A0001117000811170008111700081117000890
:1000B0001117000811170008111700081117000880
:1000C0001117000811170008111700081117000870
:1000D000111700084913000811170008111700082C
:1000E0001117000811170008111700081117000850
:1000F0001117000811170008111700081117000840
:10010000111700081117000811170008111700082F
:10011000111700081117000811170008111700081F
:10012000111700081117000811170008111700080F
:1001300011170008111700081117000811170008FF
:1001400059130008111700081117000811170008AB
:1001500011170008111700081117000811170008DF
:1001600011170008111700081117000811170008CF
:1001700011170008111700081117000800000000EF
:08018000111700081117000817
:1001880010B5054C237833B9044B13B10448AFF3C9
:1001980000800123237010BD4404002000000000EB
:1001A8006832000808B5034B1BB103490348AFF395
:1001B800008008BD000000004804002068320008E4
:1001C8004FF0FF0C1CEAD0521EBF1CEAD15392EA32
:1001D8000C0F93EA0C0F6FD01A4480EA010C40020E
:1001E80018BF5FEA41211ED04FF0006343EA501068
:1001F80043EA5111A0FB01310CF00040B1F5000FAA
:100208003EBF490041EAD3715B0040EA010062F158
:100218007F02FD2A1DD8B3F1004F40EBC25008BF42
:1002280020F00100704790F0000F0CF0004C08BF60
:1002380049024CEA502040EA51207F3AC2BFD2F12D
:10024800FF0340EAC250704740F400004FF000033B
:10025800013A5DDC12F1190FDCBF00F00040704775
:10026800C2F10002410021FA02F1C2F1200200FAB3
:1002780002FC5FEA310040F1000053EA4C0308BF7A
:1002880020EADC70704792F0000F00F0004C02BFCB
:10029800400010F4000F013AF9D040EA0C0093F046
:1002A800000F01F0004C02BF490011F4000F013BA0
:1002B800F9D041EA0C018FE70CEAD15392EA0C0F0E
:1002C80018BF93EA0C0F0AD030F0004C18BF31F079
:1002D800004CD8D180EA010000F00040704790F04F
:1002E800000F17BF90F0004F084691F0000F91F0F3
:1002F800004F14D092EA0C0F01D142020FD193EAB9
:100308000C0F03D14B0218BF084608D180EA010040
:1003180000F0004040F0FE4040F40000704740F01C
:10032800FE4040F44000704781F0004102E000BF09
:1003380083F0004330B54FEA41044FEA430594EA9D
:10034800050F08BF90EA020F1FBF54EA000C55EAD8
:10035800020C7FEA645C7FEA655C00F0E2804FEAA9
:100368005454D4EB5555B8BF6D420CDD2C4480EA8B
:10037800020281EA030382EA000083EA010180EABB
:10038800020281EA0303362D88BF30BD11F0004F09
:100398004FEA01314FF4801C4CEA113102D040423F
:1003A80061EB410113F0004F4FEA03334CEA13337A
:1003B80002D0524263EB430394EA050F00F0A78092
:1003C800A4F10104D5F1200E0DDB02FA0EFC22FA8D
:1003D80005F2801841F1000103FA0EF2801843FA81
:1003E80005F359410EE0A5F120050EF1200E012A72
:1003F80003FA0EFC28BF4CF0020C43FA05F3C018B0
:1004080051EBE37101F0004507D54FF0000EDCF128
:10041800000C7EEB00006EEB0101B1F5801F1BD3D1
:10042800B1F5001F0CD349085FEA30004FEA3C0CD5
:1004380004F101044FEA445212F5800F80F09A80CB
:10044800BCF1004F08BF5FEA500C50F1000041EBCF
:10045800045141EA050130BD5FEA4C0C404141EBD3
:100468000101013C28BFB1F5801FE9D291F0000FCE
:1004780004BF01460020B1FA81F308BF2033A3F17D
:100488000B03B3F120020CDA0C3208DD02F1140C74
:10049800C2F10C0201FA0CF021FA02F10CE002F1AF
:1004A8001402D8BFC2F1200C01FA02F120FA0CFCA8
:1004B800DCBF41EA0C019040E41AA2BF01EB0451F1
:1004C800294330BD6FEA04041F3C1CDA0C340EDCEF
:1004D80004F11404C4F1200220FA04F001FA02F332
:1004E80040EA030021FA04F345EA030130BDC4F1F0
:1004F8000C04C4F1200220FA02F001FA04F340EAE5
:100508000300294630BD21FA04F0294630BD94F095
:10051800000F83F4801306BF81F480110134013D7C
:100528004EE77FEA645C18BF7FEA655C29D094EAED
:10053800050F08BF90EA020F05D054EA000C04BF6B
:100548001946104630BD91EA030F1EBF0021002056
:1005580030BD5FEA545C05D14000494128BF41F0F5
:10056800004130BD14F580043CBF01F5801130BD59
:1005780001F0004545F0FE4141F470014FF00000E4
:1005880030BD7FEA645C1ABF194610467FEA655C95
:100598001CBF0B46024650EA013406BF52EA033537
:1005A80091EA030F41F4002130BD00BF90F0000F25
:1005B80004BF0021704730B54FF4806404F1320461
:1005C8004FF000054FF0000150E700BF90F0000F1A
:1005D80004BF0021704730B54FF4806404F1320441
:1005E80010F0004548BF40424FF000013EE700BF11
:1005F80042004FEAE2014FEA31014FEA02701FBFA1
:1006080012F07F4393F07F4F81F06051704732F0D2
:100618007F4208BF704793F07F4F04BF41F4002129
:10062800704730B54FF4607401F0004521F0004187
:100638001CE700BF50EA010208BF704730B54FF011
:1006480000050AE050EA010208BF704730B511F012
:10065800004502D5404261EB41014FF4806404F14A
:1006680032045FEA915C3FF4D8AE4FF003025FEAD0
:10067800DC0C18BF03325FEADC0C18BF033202EB54
:10068800DC02C2F1200300FA03FC20FA02F001FAAE
:1006980003FE40EA0E0021FA02F11444BDE600BF51
:1006A8004FEA410212F5001215D211D56FF4787392
:1006B800B3EB625212D94FEAC12343F0004343EA35
:1006C800505311F0004F23FA02F018BF4042704710
:1006D8004FF00000704750EA013005D111F000409A
:1006E80008BF6FF0004070474FF00000704700BF30
:1006F80080F0004002E000BF81F0004142001FBFCF
:100708005FEA410392EA030F7FEA226C7FEA236CD7
:100718006AD04FEA1262D2EB1363C1BFD2184140CC
:1007280048404140B8BF5B42192B88BF704710F062
:10073800004F40F4000020F07F4018BF404211F005
:10074800004F41F4000121F07F4118BF494292EA6D
:10075800030F3FD0A2F1010241FA03FC10EB0C0099
:10076800C3F1200301FA03F100F0004302D5494226
:1007780060EB4000B0F5000F13D3B0F1807F06D3D3
:1007880040084FEA310102F10102FE2A51D2B1F1CB
:10079800004F40EBC25008BF20F0010040EA0300C0
:1007A8007047490040EB0000013A28BFB0F5000F40
:1007B800EDD2B0FA80FCACF1080CB2EB0C0200FAF6
:1007C8000CF0AABF00EBC25052421843BCBFD04045
:1007D8001843704792F0000F81F4000106BF80F4BF
:1007E80000000132013BB5E74FEA41037FEA226C82
:1007F80018BF7FEA236C21D092EA030F04D092F04D
:10080800000F08BF0846704790EA010F1CBF002080
:10081800704712F07F4F04D1400028BF40F00040DD
:10082800704712F100723CBF00F50000704700F0FD
:10083800004343F0FE4040F4000070477FEA226224
:1008480016BF08467FEA23630146420206BF5FEAF5
:10085800412390EA010F40F4800070474FF00003F5
:1008680004E000BF10F0004348BF40425FEA000CBC
:1008780008BF704743F0964301464FF000001CE064
:1008880050EA010208BF70474FF000030AE000BFBA
:1008980050EA010208BF704711F0004302D54042F8
:1008A80061EB41015FEA010C02BF8446014600206A
:1008B80043F0B64308BFA3F18053A3F50003BCFA85
:1008C8008CF2083AA3EBC25310DB01FA02FC634432
:1008D80000FA02FCC2F12002BCF1004F20FA02F239
:1008E80043EB020008BF20F00100704702F120022C
:1008F80001FA02FCC2F1200250EA4C0021FA02F28D
:1009080043EB020008BF20EADC70704753B94AB9CC
:10091800002908BF00281CBF4FF0FF314FF0FF30FF
:1009280000F06CB9ADF1080C6DE904CE00F006F8E2
:10093800DDF804E0DDE9022304B070472DE9F04753
:10094800089E0D4604468E46002B40F082808A425F
:10095800174646D9B2FA82F24AB1C2F1200105FA25
:1009680002F320FA01F1974041EA030E94404FEA5E
:100978001748230CBEFBF8FCB9B208FB1CEE43EA8F
:100988000E430CFB01F098420AD9FB180CF1FF3515
:1009980080F01681984240F21381ACF1020C3B447E
:1009A8001B1AA4B2B3FBF8F008FB103344EA034463
:1009B80000FB01F1A14209D93C1900F1FF3380F095
:1009C8000181A14240F2FE8002383C44641A40EAA8
:1009D8000C4000211EB1D4400023C6E90043BDE805
:1009E800F08702B9FFDEB2FA82F2002A4FD1CB1BA0
:1009F8004FEA174E1FFA87F80121B3FBFEFC250CBE
:100A08000EFB1C3345EA034508FB0CF3AB4207D940
:100A18007D190CF1FF3002D2AB4200F2E780844628
:100A2800ED1AA3B2B5FBFEF00EFB105543EA0544E0
:100A380008FB00F8A04507D93C1900F1FF3302D2A2
:100A4800A04500F2D7801846A4EB080440EA0C4001
:100A5800C0E78B4208D9002E00F0AF800021C6E91C
:100A680000050846BDE8F087B3FA83F100294BD1A9
:100A7800AB4202D3824200F2B780841A65EB0303CB
:100A880001209E46002EAAD0C6E9004EA7E7C2F173
:100A9800200C01FA02F3974020FA0CF04FEA174EA7
:100AA80021FA0CFC1843BCFBFEF1050C0EFB11CC23
:100AB8001FFA87F845EA0C4501FB08F3AB4204FA34
:100AC80002F409D97D1901F1FF3C80F08B80AB421B
:100AD80040F2888002393D44EB1A85B2B3FBFEF040
:100AE8000EFB103345EA034500FB08F3AB4207D978
:100AF8007D1900F1FF3C71D2AB426FD902383D44F9
:100B0800EB1A40EA014178E7C1F1200C8B4022FA48
:100B18000CF71F4320FA0CF405FA01F34FEA174EBD
:100B280025FA0CF51C43230CB5FBFEF91FFA87F8D0
:100B38000EFB195543EA054509FB08FAAA4502FACE
:100B480001F200FA01F308D97D1909F1FF3047D203
:100B5800AA4545D9A9F102093D44A5EB0A05A4B265
:100B6800B5FBFEF00EFB105544EA054400FB08F8FF
:100B7800A04507D93C1900F1FF352DD2A0452BD946
:100B880002383C4440EA0940A4EB0804A0FB02896F
:100B98004C45C6464D4619D316D05EB1B3EB0E028E
:100BA80064EB050404FA0CFCCA404CEA0202CC408F
:100BB800C6E900240021BDE8F087314630460EE73B
:100BC800AC46EDE6184601E74345E6D2B8EB020E1F
:100BD80069EB07050138E0E72846D3E760468FE769
:100BE8008146BAE7614677E708464BE7ACF1020C65
:100BF8003D4415E702383C4426E700BF704700BF74
:100C080070B54FF0FF0C4CF4E06C1CEA11541DBF9A
:100C18001CEA135594EA0C0F95EA0C0F00F0DEF865
:100C28002C4481EA030621EA4C5123EA4C5350EA4A
:100C3800013518BF52EA033541F4801143F480139B
:100C480038D0A0FB02CE4FF00005E1FB02E506F02C
:100C58000042E0FB03E54FF00006E1FB03569CF081
:100C6800000F18BF4EF0010EA4F1FF04B6F5007F87
:100C780064F5407404D25FEA4E0E6D4146EB0606F9
:100C880042EAC62141EA55514FEAC52040EA5E5082
:100C98004FEACE2EB4F1FD0C88BFBCF5E06F1ED82C
:100CA800BEF1004F08BF5FEA500E50F1000041EB63
:100CB800045170BD06F0004646EA010140EA020010
:100CC80081EA0301B4EB5C04C2BFD4EB0C0541EA32
:100CD800045170BD41F480114FF0000E013C00F347
:100CE800AB8014F1360FDEBF002001F0004170BD6B
:100CF800C4F10004203C35DA0C341BDC04F1140484
:100D0800C4F1200500FA05F320FA04F001FA05F20F
:100D180040EA020001F0004221F0004110EBD370DC
:100D280021FA04F642EB06015EEA430E08BF20EA08
:100D3800D37070BDC4F10C04C4F1200500FA04F3AB
:100D480020FA05F001FA04F240EA020001F000413D
:100D580010EBD37041F100015EEA430E08BF20EAB0
:100D6800D37070BDC4F1200500FA05F24EEA020EF8
:100D780020FA04F301FA05F243EA020321FA04F027
:100D880001F0004121FA04F220EA020000EBD370DE
:100D98005EEA430E08BF20EAD37070BD94F0000FDE
:100DA8000FD101F00046400041EB010111F4801F12
:100DB80008BF013CF7D041EA060195F0000F18BFC3
:100DC800704703F00046520043EB030313F4801FFF
:100DD80008BF013DF7D043EA0603704794EA0C0FB9
:100DE8000CEA135518BF95EA0C0F0CD050EA4106CF
:100DF80018BF52EA4306D1D181EA030101F000414C
:100E08004FF0000070BD50EA410606BF1046194673
:100E180052EA430619D094EA0C0F02D150EA01367F
:100E280013D195EA0C0F05D152EA03361CBF1046C0
:100E380019460AD181EA030101F0004141F0FE415F
:100E480041F470014FF0000070BD41F0FE4141F4E3
:100E5800780170BD70B54FF0FF0C4CF4E06C1CEAE3
:100E680011541DBF1CEA135594EA0C0F95EA0C0F98
:100E780000F0A7F8A4EB050481EA030E52EA033553
:100E88004FEA013100F088804FEA03334FF0805574
:100E980045EA131343EA12634FEA022245EA1115A1
:100EA80045EA10654FEA00260EF000419D4208BF52
:100EB800964244F1FD0404F5407402D25B084FEAFF
:100EC8003202B61A65EB03055B084FEA32024FF4AB
:100ED80080104FF4002CB6EB020E75EB030E22BF08
:100EE800B61A754640EA0C005B084FEA3202B6EBC8
:100EF800020E75EB030E22BFB61A754640EA5C0077
:100F08005B084FEA3202B6EB020E75EB030E22BF06
:100F1800B61A754640EA9C005B084FEA3202B6EB07
:100F2800020E75EB030E22BFB61A754640EADC00C6
:100F380055EA060E18D04FEA051545EA16754FEA28
:100F480006164FEAC30343EA52734FEAC2025FEA46
:100F58001C1CC0D111F4801F0BD141EA00014FF0D5
:100F680000004FF0004CB6E711F4801F04BF0143A6
:100F78000020B4F1FD0C88BFBCF5E06F3FF6AFAEC2
:100F8800B5EB030C04BFB6EB020C5FEA500C50F152
:100F9800000041EB045170BD0EF0004E4EEA1131D5
:100FA80014EB5C04C2BFD4EB0C0541EA045170BDDC
:100FB80041F480114FF0000E013C90E645EA060E20
:100FC8008DE60CEA135594EA0C0F08BF95EA0C0F4E
:100FD8003FF43BAF94EA0C0F0AD150EA01347FF496
:100FE80034AF95EA0C0F7FF425AF104619462CE76D
:100FF80095EA0C0F06D152EA03353FF4FDAE1046D0
:10100800194622E750EA410618BF52EA43067FF420
:10101800C5AE50EA41047FF40DAF52EA43057FF4B0
:10102800EBAE12E708B50D480D4B03600323436090
:1010380000238360C3604FF4102202614FF4001252
:101048004261037643768376C3760377437700F06D
:10105800AFFB00B908BD00F0DDF8FBE76404002031
:101068000064004008B50D480D4B0360032343603E
:1010780000238360C3604FF4102202614FF4001212
:101088004261037643768376C3760377437700F02D
:101098008FFB00B908BD00F0BDF8FBE78C04002009
:1010A8000068004010B58AB00023059306930793A3
:1010B8000893099303683F4A934204D03E4A9342F7
:1010C80037D00AB010BD3D4A136801331360012BB5
:1010D80022D0002401943A4B1A6B42F002021A63A0
:1010E8001B6B03F002030193019B4FF440730593BC
:1010F800022306930794032308930923099305A958
:10110800304800F06DFF22462146142000F0B2FE60
:10111800142000F0E3FED4E700230093284B1A6C58
:1011280042F000721A641B6C03F000730093009B7A
:10113800CFE700230293224B1A6C42F080621A64B4
:101148001B6C03F080630293029B1C4A13680133F3
:101158001360012B21D000240494194B1A6B42F020
:1011680002021A631B6B03F002030493049B6023BF
:1011780005930223069307940323089309230993ED
:1011880005A9104800F02CFF22462146402000F017
:1011980071FE402000F0A2FE93E700230393084B62
:1011A8001A6C42F000721A641B6C03F0007303930C
:1011B800039BD0E700640040006800406004002002
:1011C800003802400004024084B000220192104B13
:1011D800196B41F002011963196B01F002010191C9
:1011E80001990292196B41F001011963196B01F021
:1011F80001010291029903921A6B42F080021A636C
:101208001B6B03F080030393039B04B0704700BF7C
:101218000038024072B6FEE700B595B030220021D2
:1012280008A801F05DFF0023039304930593069338
:1012380007930193204A116C41F080511164126C9C
:1012480002F080520192019A02931C4B1A6842F4F0
:1012580080421A601B6803F480430293029B0123B7
:1012680008934FF48033099302230E934FF48002BE
:101278000F9206221092A82211921293042313931C
:1012880008A800F097FF98B90F230393022304934B
:10129800002305934FF4A05306934FF4805307930C
:1012A800052103A801F0D2F920B915B05DF804FBB7
:1012B800FFF7B0FFFFF7AEFF0038024000700040B4
:1012C80008B500F049FAFFF7A7FFFFF77DFFFFF722
:1012D800A9FEFFF7C7FE00F045F801F0ABFDFEE7F9
:1012E80082B0002100910B4B5A6C42F480425A6440
:1012F8005A6C02F480420092009A01911A6C42F0F2
:1013080080521A641B6C03F080530193019B02B056
:10131800704700BF00380240FEE7FEE7FEE7FEE741
:10132800FEE770477047704708B500F02FFA08BD10
:1013380008B5024800F066FC08BD00BF6404002040
:1013480008B5024801F0FCFB08BD00BF800500207D
:1013580008B5024800F056FC08BD00BF8C04002008
:101368007047000008B50A480A4B03604FF4E133A0
:10137800436000238360C36003610C224261836180
:10138800C36101F025FB00B908BDFFF743FFFBE788
:101398008005002000100140F0B589B000230393B8
:1013A8000493059306930793026803F1804303F5BA
:1013B80088339A4201D009B0F0BD0024009403F5A7
:1013C80094335A6C42F010025A645A6C02F01002BC
:1013D8000092009A01941A6B42F002021A631A6B87
:1013E80002F002020192019A02941A6B42F0010281
:1013F8001A631B6B03F001030293029B8023039380
:10140800022704970594032606960725079503A93E
:101418000B4800F0E5FD4FF400730393049705941F
:101428000696079503A9074800F0DAFD22462146EB
:10143800252000F01FFD252000F050FDBBE700BF70
:1014480000040240000002402DE9F04100231C4640
:1014580003E0212A0AD00133DBB2C72B19D84E4A40
:10146800D25C3D2AF5D15C1CE4B2F2E7013BDBB269
:10147800494A125D2D2A0ED000251B1BDBB2013311
:10148800DBB2042B0BD0052B2ED0062B53D000201B
:1014980026E00023ECE70134E4B20125EDE73E4FF6
:1014A80017F80480A8F13008A31CF85C3038FFF75F
:1014B800D9F93A49FEF784FE06464046FFF7D2F9C5
:1014C8003146FFF71BF906460334385D3038FFF71D
:1014D800C9F93349FEF774FE01463046FFF70EF9A5
:1014E800002D56D1BDE8F0812B4F3B5D303B03EB1F
:1014F8008303621CBE5C303E06EB4306E31CF85CCB
:101508003038FFF7AFF92549FEF75AFE80463046D6
:10151800FFF7A8F94146FFF7F1F806460434385DAD
:101528003038FFF79FF91E49FEF74AFE014630465C
:10153800FFF7E4F8D4E7184E335DA3F13007631CD6
:10154800F35C303B03EB83035B00642202FB07334D
:10155800A21CB75C303F1F44231DF05C3038FFF7F6
:1015680081F90E49FEF72CFE80463846FFF77AF9D6
:101578004146FFF7C3F807460534305D3038FFF7BA
:1015880071F90749FEF71CFE01463846FFF7B6F821
:10159800A6E700F10040A5E7B4040020CDCCCC3D7F
:1015A8000AD7233C10B50446FFF74EFF012C00D0A4
:1015B80010BD1F4B1B78502B09D0492B14D0442B3E
:1015C8001FD0542BF4D11B4B186000232CE01A4B6E
:1015D8001860002305E01949642202FB0312D06059
:1015E8000133032BF7DDE3E7154B1860002305E013
:1015F8001249642202FB031210610133032BF7DD49
:10160800D6E7104B1860002305E00C49642202FB62
:10161800031250610133032BF7DDC9E70749642240
:1016280002FB031250600133032BF7DDC0E700BF54
:10163800B404002004000020CC050020D4050020BC
:10164800C8050020C40500200268164B9A4200D045
:10165800704710B5144A138801339BB21380013BBD
:10166800124A12781249CA54212A07D00F49002376
:101678000B7001220F4801F0C0FB10BD00240A4B7B
:101688001B88A34204DD0120FFF78CFF0134F6E735
:10169800C8220021064801F023FD034B00221A80CE
:1016A800E4E700BF001001407E0500207C05002013
:1016B800B404002080050020DFF834D00D480E491E
:1016C8000E4A002302E0D458C4500433C4188C4294
:1016D800F9D30B4A0B4C002301E013600432A242F9
:1016E800FBD3FFF73DFE01F0D7FCFFF7E9FD70479C
:1016F800000002200000002044040020B03200084E
:1017080044040020280A0020FEE7000010B5044623
:101718000E4B18784FF47A73B3FBF0F30C4A106849
:10172800B0FBF3F000F0E8FB68B90F2C01D90120F9
:101738000AE0002221464FF0FF3000F09BFB054BEA
:101748001C60002000E0012010BD00BF0800002040
:10175800000000200C00002008B50B4B1A6842F46A
:1017680000721A601A6842F480621A601A6842F4B9
:1017780080721A60032000F06BFB0F20FFF7C6FF92
:10178800FFF7AEFD002008BD003C0240034A116887
:10179800034B1B780B441360704700BFD005002033
:1017A80008000020014B1868704700BFD0050020D2
:1017B800002800F0A18038B5044690F82030D3B155
:1017C8002268136843F001031360FFF7EBFF054637
:1017D80023685A6812F0010F10D1FFF7E3FF401B8E
:1017E8000A28F5D9636A43F400336362052384F851
:1017F8002030012038BDFFF755FCE1E71A6822F0D8
:1018080002021A60FFF7CEFF054623685A6812F0F5
:10181800020F0DD0FFF7C6FF401B0A28F5D9636AEF
:1018280043F400336362052384F820300120E1E7A4
:10183800227E012A3DD01A6822F080021A60637E57
:10184800012B3BD02268136823F040031360A37E6A
:10185800012B39D02268136823F020031360E37E3C
:10186800012B37D02268136843F010031360237FDD
:10187800012B35D02268136823F008031360637FB7
:10188800012B33D02268136823F004031360A36884
:10189800E268134322691343626913436268013A99
:1018A80021681343CB6100206062012384F8203053
:1018B800A0E71A6842F080021A60C0E7226813683D
:1018C80043F040031360C2E72268136843F0200323
:1018D8001360C4E72268136823F010031360C6E797
:1018E8002268136843F008031360C8E72268136886
:1018F80043F004031360CAE70120704790F82030D2
:10190800013BDBB2012B05D9436A43F480234362D0
:101918000120704770B4444BD3F8002242F0010212
:10192800C3F80022D3F8002222F47C52C3F8002224
:10193800D3F80022486A42EA0022C3F800224A6922
:1019480002F01F02012000FA02F2D3F81C02D4436D
:1019580020EA0200C3F81C02CB69B3B9324BD3F8B2
:101968000C022040C3F80C02CE688D88486945EA0D
:101978000645483043F830508E6808884D6940EA7B
:101988000640483503EBC5035860CB69012B1DD0D1
:101998008B69002B32D12448D0F804322340C0F898
:1019A80004320B698BBB204BD3F814020440C3F8F4
:1019B80014420B6A012B2FD01B4AD2F8003223F0B5
:1019C8000103C2F80032002070BC7047164BD3F8F0
:1019D8000C021043C3F80C020E688D88486945EA6A
:1019E8000645483043F830508E6888894D6940EA8A
:1019F8000640483503EBC5035860C9E70A48D0F8E4
:101A080004321343C0F80432CBE70748D0F8143245
:101A18001343C0F81432CCE70349D1F81C321A43F7
:101A2800C1F81C22C8E700BF0064004070B5044636
:101A380090F82050EDB2012D06D0436A43F40023FC
:101A480043620125284670BD022380F820300268D1
:101A5800136823F001031360FFF7A4FE064623680A
:101A68005B6813F0010F0CD0FFF79CFE831B0A2B59
:101A7800F5D9636A43F400336362052384F82030A0
:101A8800E0E700256562DDE730B490F82040013CCE
:101A9800E4B2012C00F2918051B90468E46814F0B2
:101AA800030F10D1436A43F400134362012089E015
:101AB8000468246914F0030F05D1436A43F4001342
:101AC800436201207EE0056801F11B0424012C59C2
:101AD80004F004049460002C61D1056801F11B0432
:101AE80024012C59640D1460056801F11B042401BC
:101AF8002D5905F00205D560056825446D6805F087
:101B08000F051561056825446D68C5F307259561BE
:101B180005682C446468240C5461026802EB0112C5
:101B2800D2F8B8211A70026802EB0112D2F8B82173
:101B3800C2F307225A70026802EB0112D2F8B821E8
:101B4800C2F307429A70026802EB0112D2F8B82178
:101B5800120EDA70026802EB0112D2F8BC211A7177
:101B6800026802EB0112D2F8BC21C2F307225A71B3
:101B7800026802EB0112D2F8BC21C2F307429A7143
:101B8800026802EB0112D2F8BC21120EDA7171B9A7
:101B98000268D36843F02003D360002012E0056890
:101BA80001F11B0424012C59E40854609CE70268E5
:101BB800136943F020031361EFE7436A43F480237A
:101BC8004362012030BC704790F82030013BDBB203
:101BD800012B05D9436A43F48023436201207047EF
:101BE8000268536919435161002070477047704774
:101BF8007047704770477047704770477047704725
:101C0800704770472DE9F84F054603685C69D3F8BB
:101C180004809F68D3F80CB0D3F810A0D3F81890BC
:101C280014F001063BD017F0010616D001229A6085
:101C380017F0020F08D117F0040F0CD117F008069F
:101C480006D04FF4805608E0FFF7D0FF002604E0E6
:101C5800FFF7CFFF01E04FF4006617F4807F0DD047
:101C68002B684FF480729A6017F4007F40F08680EA
:101C780017F4806F00F0868046F4005617F4803F12
:101C88000DD02B684FF480329A6017F4003F40F073
:101C9800838017F4802F00F0838046F4004614F008
:101CA800080F07D01BF0100F04D046F400762B68FD
:101CB8001022DA6014F0040F02D01BF0080F79D15B
:101CC80014F0020F04D02B68DB6813F0030F78D1EF
:101CD80014F0400F07D01AF0100F04D046F48066B5
:101CE8002B6810221A6114F0200F02D01AF0080F86
:101CF8006BD114F0100F04D02B681B6913F0030F7D
:101D08006AD114F4003F02D018F0100F68D114F40F
:101D1800803F02D018F0080F69D114F4004F7AD030
:101D280018F0040F74D014F4807F04D019F0010F58
:101D380001D046F0010614F4007F04D019F0020F18
:101D480001D046F0020614F4806F04D019F0040F95
:101D580001D046F0040614F4006F59D019F0700948
:101D680056D0B9F1400F65D058D8B9F1200F5ED0E0
:101D7800B9F1300F42D146F0200644E02846FFF77B
:101D880036FF7BE717F4006F02D046F4804675E70C
:101D98002846FFF72FFF71E72846FFF729FF7EE760
:101DA80017F4002F02D046F4803678E72846FFF76C
:101DB80022FF74E72B680822DA602846FFF71CFF29
:101DC8007EE7284601F064F882E72B6808221A614A
:101DD8002846FFF713FF8CE72846FFF70EFF90E72A
:101DE8002B6810225A602846FFF709FF8FE72B68F7
:101DF80008225A602846FFF703FF8EE7B9F1100F53
:101E080001D146F008062A68936923F070039361AC
:101E18002B6804225A609EB9BDE8F88FB9F1500FBB
:101E28000BD0B9F1600FEED146F48076EBE746F0BF
:101E38001006E8E746F04006E5E746F08006E2E7E8
:101E48006B6A1E436E622846FFF7DBFEE4E700007C
:101E5800074AD36823F4E0631B041B0C000200F458
:101E6800E060034343F0BF6343F40033D36070473B
:101E780000ED00E030B4174BDB68C3F30223C3F175
:101E88000704042C28BF04241D1D062D18D9033B64
:101E98004FF0FF3505FA04F421EA0401994005FAE8
:101EA80003F322EA0303194300280BDB0901C9B233
:101EB80000F1604000F5614080F8001330BC7047C5
:101EC8000023E5E700F00F000901C9B2024B1954DD
:101ED800F4E700BF00ED00E014ED00E0002807DBA8
:101EE80000F01F02400901239340024A42F82030C3
:101EF800704700BF00E100E00138B0F1807F0AD2EE
:101F0800064B5860064AF02182F82310002098609A
:101F180007221A6070470120704700BF10E000E0F8
:101F280000ED00E070B50446866DFFF73BFC94F8C1
:101F38003530DBB2022B06D080236365002384F89A
:101F48003430012070BD05462268136823F016035B
:101F580013602268536923F080035361236CE3B153
:101F68002268136823F0080313602268136823F0BB
:101F78000103136023681B6813F0010F11D0FFF7EA
:101F880011FC431B052BF5D920236365032084F836
:101F98003500002384F83430D4E7A36C002BDFD15C
:101FA800E3E7E26D3F239340B360012384F83530C3
:101FB800002084F83400C5E790F83530DBB2022BF6
:101FC80003D08023436501207047052380F835300E
:101FD8000268136823F001031360002070470000B3
:101FE80000230F2B00F2DD80F0B482B05DE086683C
:101FF8005F000324BC4026EA0406CC68BC40344396
:102008008460466826EA02064C68C4F300129A40C7
:102018003243426057E0DC08083450F8247003F07B
:10202800070296000F22B24027EA02070A69B24067
:102038003A4340F824205AE0072200E00022B24048
:102048003A430234574E46F82420574A9468EA43E4
:1020580024EA05064F6817F4801F01D045EA0406F4
:10206800514CA660E46802EA04064F6817F4001FA2
:1020780001D045EA04064C4CE660646802EA0406AE
:102088004F6817F4003F01D045EA0406464C6660E5
:10209800246822404E6816F4803F01D045EA0402C5
:1020A800414C226001330F2B78D801229A400C68EA
:1020B80004EA020532EA0404F4D14C6804F003048B
:1020C800013C012C93D94A6802F00302032A09D083
:1020D800C4685E000322B24024EA02048A68B2405F
:1020E8002243C2604A6802F00302022A93D00468BD
:1020F8005E000322B24024EA02044A6802F00302A6
:10210800B240224302604A6812F4403FCAD000221B
:102118000192264A546C44F480445464526C02F48C
:1021280080420192019A9C08A61C1E4A52F8267009
:1021380003F0030296000F22B24027EA02071C4A66
:1021480090423FF47BAF02F5806290421AD002F5CC
:102158008062904218D002F58062904216D002F553
:102168008062904214D002F58062904212D002F54B
:102178008062904210D002F5806290423FF45CAFDA
:1021880008225CE701225AE7022258E7032256E7B1
:10219800042254E7052252E7062250E702B0F0BCB9
:1021A8007047704700380140003C01400038024049
:1021B80000000240002800F0DF8170B582B00446BC
:1021C800036813F0010F3BD0A64B9B6803F00C0388
:1021D800042B2CD0A34B9B6803F00C03082B21D0B5
:1021E8006368B3F5803F4FD0B3F5A02F52D09D4B15
:1021F8001A6822F480321A601A6822F480221A605F
:102208006368002B50D0FFF7CDFA0546954B1B6845
:1022180013F4003F14D1FFF7C5FA401B6428F5D921
:102228000320B0E18F4B5B6813F4800FD8D08D4B3F
:102238001B6813F4003F03D06368002B00F09E81F5
:10224800236813F0020F54D0864B9B6813F00C0FD1
:102258003ED0844B9B6803F00C03082B33D0E36813
:10226800002B67D0804B01221A60FFF79BFA0546C6
:102278007C4B1B6813F0020F53D1FFF793FA401BF6
:102288000228F5D903207EE1764A136843F48033A7
:102298001360B5E7734B1A6842F480221A601A6813
:1022A80042F480321A60ABE7FFF77CFA05466D4BC3
:1022B8001B6813F4003FC3D0FFF774FA401B64286F
:1022C800F5D903205FE1674B5B6813F4800FC6D133
:1022D800644B1B6813F0020F03D0E368012B40F036
:1022E8004F81604A136823F0F803216943EAC10368
:1022F8001360236813F0080F40D0636963B35B4B26
:1023080001221A60FFF74EFA0546564B5B6F13F031
:10231800020F33D1FFF746FA401B0228F5D90320F4
:1023280031E1504A136823F0F803216943EAC103F5
:102338001360DEE74C4B00221A60FFF733FA0546BC
:10234800484B1B6813F0020FD3D0FFF72BFA401B42
:102358000228F5D9032016E1444B00221A60FFF742
:1023680021FA05463F4B5B6F13F0020F06D0FFF7CB
:1023780019FA401B0228F5D9032004E1236813F059
:10238800040F78D0374B1B6C13F0805F0DD10023FE
:102398000193344B1A6C42F080521A641B6C03F0A0
:1023A80080530193019B012500E00025304B1B68F9
:1023B80013F4807F21D0A368012B32D0052B36D0AF
:1023C800284B1A6F22F001021A671A6F22F00402D2
:1023D8001A67A368002B34D0FFF7E4F90646214BAF
:1023E8001B6F13F0020F45D1FFF7DCF9801B41F298
:1023F80088339842F3D90320C5E01D4A136843F493
:1024080080731360FFF7CEF90646194B1B6813F467
:10241800807FD0D1FFF7C6F9801B0228F5D90320A9
:10242800B1E0104A136F43F001031367D1E70D4B76
:102438001A6F42F004021A671A6F42F001021A6713
:10244800C7E7FFF7AFF90646064B1B6F13F0020FFD
:1024580010D0FFF7A7F9801B41F288339842F3D9CF
:10246800032090E00038024000004742800E4742B7
:1024780000700040EDB9A369002B00F08380494A41
:10248800926802F00C02082A51D0022B17D0464B52
:1024980000221A60FFF786F90446424B1B6813F0C6
:1024A800007F42D0FFF77EF9001B0228F5D90320F0
:1024B80069E03C4A136C23F080531364DBE73A4B22
:1024C80000221A60FFF76EF90546364B1B6813F0B9
:1024D800007F06D0FFF766F9401B0228F5D90320D4
:1024E80051E0E369226A1343626A43EA8213A26AEB
:1024F8005208013A43EA0243E26A43EA0263294A7C
:102508005360294B01221A60FFF74CF90446254B0A
:102518001B6813F0007F06D1FFF744F9001B02285F
:10252800F5D903202FE000202DE000202BE0012B1F
:102538002BD01C4B5B6803F48001E269914226D1E1
:1025480003F03F02216A8A4223D1616A47F6C072CA
:102558001A40B2EB811F1ED103F44031A26A52081F
:10256800013AB1EB024F18D103F07063E26AB3EBA2
:10257800026F14D1002006E001207047012002E01C
:10258800012000E0002002B070BD0120FBE701201F
:10259800F9E70120F7E70120F5E70120F3E701203B
:1025A800F1E700BF0038024060004742F8B5244B0D
:1025B8009B6803F00C03042B3DD0082B3DD1204B26
:1025C8005A6802F03F025B6813F4800F12D01C4B6C
:1025D8005968C1F3881100231A48A1FB0001FEF7CE
:1025E80095F9174B5B68C3F3014301335B00B0FBFC
:1025F800F3F023E0124B5B68C3F388135C010025FA
:10260800E41A65F10005AE0146EA9466A701381B95
:1026180066EB0501CC0044EA5074C500E81844F1A3
:1026280000018B0243EA9053840220461946002396
:10263800FEF76CF9D5E7034800E00348F8BD00BF92
:1026480000380240001BB7000024F400002800F006
:102658009B8070B50D4604464F4B1B6803F007037B
:102668008B4208D2CBB24C4A1370136803F00703AD
:102678008B4240F08B80236813F0020F17D013F0C1
:10268800040F04D0454A936843F4E05393602368E9
:1026980013F0080F04D0414A936843F460439360F1
:1026A8003E4A936823F0F003A1680B4393602368C4
:1026B80013F0010F32D06368012B21D09A1E012A32
:1026C80025D9364A126812F0020F61D033498A6858
:1026D80022F0030213438B60FFF764F806462F4B82
:1026E8009B6803F00C036268B3EB820F16D0FFF708
:1026F80059F8801B41F288339842F0D9032042E010
:10270800264A126812F4003FE0D101203BE0234A38
:10271800126812F0007FD9D1012034E01E4B1B68EB
:1027280003F00703AB4207D9EAB21B4B1A701B68C8
:1027380003F00703AB422DD1236813F0040F06D032
:10274800164A936823F4E053E1680B4393602368C7
:1027580013F0080F07D0114A936823F460432169E6
:1027680043EAC1039360FFF721FF0C4B9B68C3F357
:1027780003130B4AD35CD8400A4B18600A4B1868FD
:10278800FEF7C4FF002070BD012070470120FAE762
:102798000120F8E70120F6E7003C0240003802403B
:1027A80080320008000000200C000020014B18684F
:1027B800704700BF0000002008B5FFF7F7FF044B83
:1027C8009B68C3F38223034AD35CD84008BD00BF8B
:1027D800003802409032000808B5FFF7E7FF044BC5
:1027E8009B68C3F34233034AD35CD84008BD00BF9B
:1027F8000038024090320008026802F10C0353E8E6
:10280800003F23F490730C3242E800310029F3D1E1
:10281800026802F1140353E8003F23F00103143265
:1028280042E800310029F3D1036B012B05D02023A6
:1028380080F83E30002303637047026802F10C03FE
:1028480053E8003F23F010030C3242E8003100291E
:10285800F3D1ECE790F83D30DBB2212B01D0022018
:1028680070478368B3F5805F17D0036A5A1C026209
:102878001A7803685A60C38C9BB2013B9BB2C3842D
:102888004BB90268D36823F08003D3600268D36829
:1028980043F04003D360002070470369002BE4D164
:1028A800036A1B880268C3F308035360036A023390
:1028B8000362E0E770B504460268136923F44053E5
:1028C800C1680B4313618368026913434269134368
:1028D800C2691A430168CB6823F4164323F00C033A
:1028E8001343CB600268536923F4407381690B4337
:1028F80053610368344A934206D002F580629342DA
:1029080002D0FFF759FF01E0FFF766FFE369B3F56F
:10291800004F2AD00026051846EB06012D1846EB75
:102928000101CB0043EA5573EA001546194663686E
:102938009A009B0F281846EB0101FDF7E7FF234D8E
:10294800A5FB00325109642303FB11031B01323339
:10295800A5FB03235B0903F0F00202EB011203F06D
:102968000F03216813448B6070BD0026051846EBE1
:1029780006012D1846EB0101CB0043EA5573EA0026
:102988001546194662683346921846EB0303281821
:1029980046EB0101FDF7BAFF0C4DA5FB00325109CA
:1029A800642303FB1103DB003233A5FB03235B091C
:1029B8005A0002F4F87202EB011203F007032168CF
:1029C80013448B60D0E700BF001001401F85EB5116
:1029D80058B310B5044690F83D300BB3242384F85F
:1029E8003D302268D36823F40053D3602046FFF7B4
:1029F80061FF2268136923F49043136122685369C5
:102A080023F02A0353612268D36843F40053D36048
:102A180000202064202384F83D3084F83E3010BD27
:102A280080F83C30FEF7B8FCD8E7012070477047C3
:102A380008B50168CA6822F04002CA60202280F8FE
:102A48003D20FFF7F4FF002008BD704708B5806BF4
:102A58000023C385C384FFF7F8FF08BD704790F8CB
:102A68003E30DBB2222B67D18368B3F5805F4DD04F
:102A7800826AB3F5805F04D0002B54D10369002B20
:102A880051D103685B681370836A01338362C38D15
:102A98009BB2013B9BB2C385002B4FD100B583B0DD
:102AA8000268D36823F02003D3600268D36823F454
:102AB8008073D3600268536923F0010353612023B4
:102AC80080F83E30036B012B33D100230363026887
:102AD80002F10C0353E8003F23F010030C3242E8E4
:102AE80000310029F3D103681A6812F0100F06D0DC
:102AF800002201921A6801925B680193019B818D03
:102B0800FFF7ACFF002003B05DF804FB0269002A60
:102B1800AED1826A03685B68C3F308031380836AD3
:102B280002338362B3E703685B6803F07F031370C3
:102B3800AAE7FEF789FDE5E7022070470020704705
:102B480030B583B0044602681368D068516913F041
:102B58000F0505D113F0200F02D010F0200F19D166
:102B68002DB111F0010119D110F4907F16D1216B0C
:102B780001297DD013F0800F03D010F0800F40F0B2
:102B8800158113F0400F03D010F0400F40F0128170
:102B980003B030BD2046FFF762FFF9E713F0010FDD
:102BA80006D010F4807F03D0226C42F00102226428
:102BB80013F0040F04D019B1226C42F0020222640F
:102BC80013F0020F04D019B1226C42F004022264FF
:102BD80013F0080F07D010F0200F00D119B1226CA4
:102BE80042F008022264226C002AD1D013F0200F90
:102BF80002D010F0200F29D123685B6903F040034D
:102C0800226C12F0080F00D163B32046FFF7F4FDE1
:102C180023685B6913F0400F20D0226802F1140387
:102C280053E8003F23F04003143242E80031002902
:102C3800F3D1A36B73B1614A1A65A06BFFF7BCF9B6
:102C48000028A5D0A06B036D9847A1E72046FFF7A1
:102C580006FFD1E72046FFF7F8FE99E72046FFF781
:102C6800F4FE95E72046FFF7F0FE002323648FE784
:102C780013F0100F3FF47EAF10F0100F3FF47AAF4F
:102C8800002301931368019353680193019B5369CF
:102C980013F0400F50D0A26B13685B689BB2002BF7
:102CA8003FF476AFA18D99427FF672AFE385D36981
:102CB800B3F5807F37D0226802F10C0353E8003F58
:102CC80023F480730C3242E800310029F3D12268E2
:102CD80002F1140353E8003F23F00103143242E8E1
:102CE80000310029F3D1226802F1140353E8003FB0
:102CF80023F04003143242E800310029F3D12023A5
:102D080084F83E3000232363226802F10C0353E861
:102D1800003F23F010030C3242E800310029F3D1C0
:102D2800A06BFFF7FFF8A18DE38D9BB2C91A89B29A
:102D38002046FFF793FE2BE7A18DE38D9BB2C91ABE
:102D480089B2E38D9BB2002B3FF422AF00293FF4F8
:102D58001FAF226802F10C0353E8003F23F490737D
:102D68000C3242E800300028F3D1226802F1140343
:102D780053E8003F23F00103143242E800300028F2
:102D8800F3D1202384F83E3000232363226802F124
:102D98000C0353E8003F23F010030C3242E80030E4
:102DA8000028F3D12046FFF759FEF1E62046FFF749
:102DB80051FDEDE62046FFF73BFEE9E6552A0008FF
:102DC80081628285C28500230364222280F83E2026
:102DD80080F83C30036923B10268D36843F48073F8
:102DE800D3600268536943F0010353610268D368F2
:102DF80043F02003D3600020704708B590F83E30B8
:102E0800DBB2202B0DD171B17AB190F83C30012B97
:102E18000DD0012380F83C3000230363FFF7D0FF77
:102E280000E0022008BD0120FCE70120FAE70220AB
:102E3800F8E7000010B58AB0012208920023069333
:102E480007920093019302930393059304930E4C06
:102E580069462046FEF752FD2046FEF7E7FD0221AF
:102E68002046FEF7B1FE0E2309930593074C6946E9
:102E78002046FEF743FD2046FEF7D8FD02212046F6
:102E8800FEF7A2FE0AB010BD640400208C040020E6
:102E980070B58AB0044601AB03AA0021FEF7F4FD21
:102EA800764B9C4204D0764B9C4274D00AB070BDDD
:102EB800039CA4F20123032BF8D8013CE4B29DF84B
:102EC80004209DF8053043EA022318B2C4EBC4017C
:102ED8006C4A22F821306C4B1B6843B10A46694999
:102EE80001EB8202D0811082013B674A13609DF892
:102EF80006301B021BB29DF8072013436149C4EB3F
:102F0800C40001EB800213819DF808301B021BB23C
:102F18009DF809502B4353819DF80A30137331F8FB
:102F28002030B2F90E209B1AB3F5805F27DD01EB44
:102F380080035A69013A5A61524DE600C4EBC40253
:102F480005EB820335F92210D981596935F8220039
:102F5800B3F91020801A00EB41309861FDF736FB79
:102F680000224A4BFDF74CFE0022494BFDF748FE74
:102F7800341B05EB8405FDF793FB686096E713F5B2
:102F8800805FD9DAC4EBC4033E4A02EB83035A6973
:102F980001325A61D0E7039CA4F20123032B85D8A0
:102FA800013CE4B29DF804209DF8053043EA022371
:102FB80018B2C4EBC401374A22F82130324B1B68DF
:102FC80043B10A46334901EB8202D0811082013BAA
:102FD8002D4A13609DF806301B021BB29DF807208E
:102FE80013432C49C4EBC40001EB800213819DF804
:102FF80008301B021BB29DF809502B4353819DF8E2
:103008000A30137331F82030B2F90E209B1AB3F549
:10301800805F27DD01EB80035A69013A5A611D4D33
:10302800E600C4EBC40205EB820335F92210D9810E
:10303800596935F82200B3F91020801A00EB4130A5
:103048009861FDF7C3FA0022104BFDF7D9FD002265
:103058000F4BFDF7D5FD341B05EB8405FDF720FB71
:10306800686023E713F5805FD9DAC4EBC403094A23
:1030780002EB83035A6901325A61D0E764040020E5
:103088008C04002064070020100000200000244069
:103098000000203FB408002070B50D4E0D4D761B82
:1030A800B61006D0002455F8043B01349847A642D0
:1030B800F9D1094E094D761B00F0D2F8B61006D0AA
:1030C800002455F8043B01349847A642F9D170BD55
:1030D800A4320008A4320008AC320008A432000868
:1030E800F0B4860746D0541E002A3CD0CAB2034624
:1030F80001E0013C37D303F8012B9D07F9D1032CDC
:103108002AD9CDB245EA05250F2C45EA054534D91B
:10311800A4F1100222F00F0C03F1200716096744EE
:1031280003F1100242E9045542E902551032BA424D
:10313800F8D1721C14F00C0F03EB021204F00F0606
:1031480013D0331F23F003030433134442F8045B02
:103158009342FBD106F003042CB1CAB21C4403F815
:10316800012B9C42FBD1F0BC704734461346002C1F
:10317800F3D1F8E714460346C1E71A462646E0E7C6
:10318800024B13B1024800F005B870470000000078
:10319800A9310008002301461A46184600F01AB85B
:1031A80038B5084B084D5B1B9C1007D0043B1D44E9
:1031B800013C55F804399847002CF9D1BDE838404E
:1031C80000F054B8B0320008AC320008704700BFB5
:1031D800704700BF2DE9F047DFF880A00646DAF80F
:1031E800000098460F469146FFF7F0FF1A4B1B6800
:1031F800D3F8484124B365681F2D26DC5EB9AB1CA3
:103208000135DAF80000656044F82370FFF7E0FF45
:103218000020BDE8F08704EB85030121C3F88890FE
:10322800D4F88821A9400A43022EC4F88821C3F89B
:103238000881E4D1D4F88C311943C4F88C11DEE745
:1032480003F5A674C3F84841D5E7DAF80000FFF79C
:10325800BFFF4FF0FF30DCE7983200084004002041
:10326800F8B500BFF8BC08BC9E467047F8B500BF6B
:08327800F8BC08BC9E4670473B
:103280000000000000000000010203040607080916
:0C329000000000000102030418000020F0
:08329C00A8D6FF7F010000002D
:0832A40089310008AD010008AA
:0432AC00890100088C
:1032B0000024F4000000B4420100000010000000EF
:1032C00003000000000000000000000004030020D4
:1032D0006C030020D4030020000000000000000068
:1032E00000000000000000000000000000000000DE
:1032F00000000000000000000000000000000000CE
:1033000000000000000000000000000000000000BD
:1033100000000000000000000000000000000000AD
:10332000000000000000000000000000000000009D
:10333000000000000000000000000000000000008D
:10334000000000000000000000000000000000007D
:10335000000000000000000000000000000000006D
:10336000000000000000000000000000000000005D
:1033700001000000000000000E33CDAB34126DE6FA
:10338000ECDE05000B000000000000000000000063
:10339000000000000000000000000000000000002D
:1033A000000000000000000000000000000000001D
:1033B000000000000000000000000000000000000D
:1033C00000000000000000000000000000000000FD
:0436F000040A0020A8
:04000005080016C118
:00000001FF
